{
  "contractName": "SupplyChain",
  "abi": [
    {
      "inputs": [],
      "stateMutability": "payable",
      "type": "constructor",
      "payable": true
    },
    {
      "anonymous": false,
      "inputs": [
        {
          "indexed": true,
          "internalType": "address",
          "name": "account",
          "type": "address"
        }
      ],
      "name": "FarmerAdded",
      "type": "event"
    },
    {
      "anonymous": false,
      "inputs": [
        {
          "indexed": true,
          "internalType": "address",
          "name": "account",
          "type": "address"
        }
      ],
      "name": "FarmerRemoved",
      "type": "event"
    },
    {
      "anonymous": false,
      "inputs": [
        {
          "indexed": false,
          "internalType": "uint256",
          "name": "upc",
          "type": "uint256"
        }
      ],
      "name": "ForSale",
      "type": "event"
    },
    {
      "anonymous": false,
      "inputs": [
        {
          "indexed": false,
          "internalType": "uint256",
          "name": "upc",
          "type": "uint256"
        }
      ],
      "name": "Harvested",
      "type": "event"
    },
    {
      "anonymous": false,
      "inputs": [
        {
          "indexed": false,
          "internalType": "uint256",
          "name": "upc",
          "type": "uint256"
        }
      ],
      "name": "Packed",
      "type": "event"
    },
    {
      "anonymous": false,
      "inputs": [
        {
          "indexed": false,
          "internalType": "uint256",
          "name": "upc",
          "type": "uint256"
        }
      ],
      "name": "Processed",
      "type": "event"
    },
    {
      "anonymous": false,
      "inputs": [
        {
          "indexed": false,
          "internalType": "uint256",
          "name": "upc",
          "type": "uint256"
        }
      ],
      "name": "Purchased",
      "type": "event"
    },
    {
      "anonymous": false,
      "inputs": [
        {
          "indexed": false,
          "internalType": "uint256",
          "name": "upc",
          "type": "uint256"
        }
      ],
      "name": "Received",
      "type": "event"
    },
    {
      "anonymous": false,
      "inputs": [
        {
          "indexed": false,
          "internalType": "uint256",
          "name": "upc",
          "type": "uint256"
        }
      ],
      "name": "Shipped",
      "type": "event"
    },
    {
      "anonymous": false,
      "inputs": [
        {
          "indexed": false,
          "internalType": "uint256",
          "name": "upc",
          "type": "uint256"
        }
      ],
      "name": "Sold",
      "type": "event"
    },
    {
      "inputs": [
        {
          "internalType": "address",
          "name": "account",
          "type": "address"
        }
      ],
      "name": "addConsumer",
      "outputs": [],
      "stateMutability": "nonpayable",
      "type": "function"
    },
    {
      "inputs": [
        {
          "internalType": "address",
          "name": "account",
          "type": "address"
        }
      ],
      "name": "addDistributor",
      "outputs": [],
      "stateMutability": "nonpayable",
      "type": "function"
    },
    {
      "inputs": [
        {
          "internalType": "address",
          "name": "account",
          "type": "address"
        }
      ],
      "name": "addFarmer",
      "outputs": [],
      "stateMutability": "nonpayable",
      "type": "function"
    },
    {
      "inputs": [
        {
          "internalType": "address",
          "name": "account",
          "type": "address"
        }
      ],
      "name": "addRetailer",
      "outputs": [],
      "stateMutability": "nonpayable",
      "type": "function"
    },
    {
      "inputs": [
        {
          "internalType": "address",
          "name": "account",
          "type": "address"
        }
      ],
      "name": "isConsumer",
      "outputs": [
        {
          "internalType": "bool",
          "name": "",
          "type": "bool"
        }
      ],
      "stateMutability": "view",
      "type": "function",
      "constant": true
    },
    {
      "inputs": [
        {
          "internalType": "address",
          "name": "account",
          "type": "address"
        }
      ],
      "name": "isDistributor",
      "outputs": [
        {
          "internalType": "bool",
          "name": "",
          "type": "bool"
        }
      ],
      "stateMutability": "view",
      "type": "function",
      "constant": true
    },
    {
      "inputs": [
        {
          "internalType": "address",
          "name": "account",
          "type": "address"
        }
      ],
      "name": "isFarmer",
      "outputs": [
        {
          "internalType": "bool",
          "name": "",
          "type": "bool"
        }
      ],
      "stateMutability": "view",
      "type": "function",
      "constant": true
    },
    {
      "inputs": [
        {
          "internalType": "address",
          "name": "account",
          "type": "address"
        }
      ],
      "name": "isRetailer",
      "outputs": [
        {
          "internalType": "bool",
          "name": "",
          "type": "bool"
        }
      ],
      "stateMutability": "view",
      "type": "function",
      "constant": true
    },
    {
      "inputs": [],
      "name": "renounceConsumer",
      "outputs": [],
      "stateMutability": "nonpayable",
      "type": "function"
    },
    {
      "inputs": [],
      "name": "renounceDistributor",
      "outputs": [],
      "stateMutability": "nonpayable",
      "type": "function"
    },
    {
      "inputs": [],
      "name": "renounceFarmer",
      "outputs": [],
      "stateMutability": "nonpayable",
      "type": "function"
    },
    {
      "inputs": [],
      "name": "renounceRetailer",
      "outputs": [],
      "stateMutability": "nonpayable",
      "type": "function"
    },
    {
      "inputs": [],
      "name": "kill",
      "outputs": [],
      "stateMutability": "nonpayable",
      "type": "function"
    },
    {
      "inputs": [
        {
          "internalType": "address",
          "name": "_originFarmerID",
          "type": "address"
        },
        {
          "internalType": "string",
          "name": "_originFarmName",
          "type": "string"
        },
        {
          "internalType": "string",
          "name": "_originFarmInformation",
          "type": "string"
        },
        {
          "internalType": "string",
          "name": "_originFarmLatitude",
          "type": "string"
        },
        {
          "internalType": "string",
          "name": "_originFarmLongitude",
          "type": "string"
        },
        {
          "internalType": "string",
          "name": "_productNotes",
          "type": "string"
        },
        {
          "internalType": "address",
          "name": "_distributorID",
          "type": "address"
        },
        {
          "internalType": "address",
          "name": "_retailerID",
          "type": "address"
        },
        {
          "internalType": "address",
          "name": "_consumerID",
          "type": "address"
        }
      ],
      "name": "register",
      "outputs": [
        {
          "components": [
            {
              "internalType": "uint256",
              "name": "sku",
              "type": "uint256"
            },
            {
              "internalType": "uint256",
              "name": "upc",
              "type": "uint256"
            },
            {
              "internalType": "address",
              "name": "ownerID",
              "type": "address"
            },
            {
              "internalType": "address",
              "name": "originFarmerID",
              "type": "address"
            },
            {
              "internalType": "string",
              "name": "originFarmName",
              "type": "string"
            },
            {
              "internalType": "string",
              "name": "originFarmInformation",
              "type": "string"
            },
            {
              "internalType": "string",
              "name": "originFarmLatitude",
              "type": "string"
            },
            {
              "internalType": "string",
              "name": "originFarmLongitude",
              "type": "string"
            },
            {
              "internalType": "uint256",
              "name": "productID",
              "type": "uint256"
            },
            {
              "internalType": "string",
              "name": "productNotes",
              "type": "string"
            },
            {
              "internalType": "uint256",
              "name": "productPrice",
              "type": "uint256"
            },
            {
              "internalType": "enum SupplyChain.State",
              "name": "itemState",
              "type": "uint8"
            },
            {
              "internalType": "address",
              "name": "distributorID",
              "type": "address"
            },
            {
              "internalType": "address",
              "name": "retailerID",
              "type": "address"
            },
            {
              "internalType": "address",
              "name": "consumerID",
              "type": "address"
            }
          ],
          "internalType": "struct SupplyChain.Item",
          "name": "itemReturn",
          "type": "tuple"
        }
      ],
      "stateMutability": "nonpayable",
      "type": "function"
    },
    {
      "inputs": [
        {
          "internalType": "uint256",
          "name": "_upc",
          "type": "uint256"
        }
      ],
      "name": "harvestItem",
      "outputs": [],
      "stateMutability": "nonpayable",
      "type": "function"
    },
    {
      "inputs": [
        {
          "internalType": "uint256",
          "name": "_upc",
          "type": "uint256"
        }
      ],
      "name": "processItem",
      "outputs": [],
      "stateMutability": "nonpayable",
      "type": "function"
    },
    {
      "inputs": [
        {
          "internalType": "uint256",
          "name": "_upc",
          "type": "uint256"
        }
      ],
      "name": "packItem",
      "outputs": [],
      "stateMutability": "nonpayable",
      "type": "function"
    },
    {
      "inputs": [
        {
          "internalType": "uint256",
          "name": "_upc",
          "type": "uint256"
        },
        {
          "internalType": "uint256",
          "name": "_price",
          "type": "uint256"
        }
      ],
      "name": "sellItem",
      "outputs": [],
      "stateMutability": "nonpayable",
      "type": "function"
    },
    {
      "inputs": [
        {
          "internalType": "uint256",
          "name": "_upc",
          "type": "uint256"
        }
      ],
      "name": "buyItem",
      "outputs": [],
      "stateMutability": "payable",
      "type": "function",
      "payable": true
    },
    {
      "inputs": [
        {
          "internalType": "uint256",
          "name": "_upc",
          "type": "uint256"
        }
      ],
      "name": "shipItem",
      "outputs": [],
      "stateMutability": "nonpayable",
      "type": "function"
    },
    {
      "inputs": [
        {
          "internalType": "uint256",
          "name": "_upc",
          "type": "uint256"
        }
      ],
      "name": "receiveItem",
      "outputs": [],
      "stateMutability": "nonpayable",
      "type": "function"
    },
    {
      "inputs": [
        {
          "internalType": "uint256",
          "name": "_upc",
          "type": "uint256"
        }
      ],
      "name": "purchaseItem",
      "outputs": [],
      "stateMutability": "nonpayable",
      "type": "function"
    },
    {
      "inputs": [
        {
          "internalType": "uint256",
          "name": "_upc",
          "type": "uint256"
        }
      ],
      "name": "fetchItemBufferOne",
      "outputs": [
        {
          "internalType": "uint256",
          "name": "itemSKU",
          "type": "uint256"
        },
        {
          "internalType": "uint256",
          "name": "itemUPC",
          "type": "uint256"
        },
        {
          "internalType": "address",
          "name": "ownerID",
          "type": "address"
        },
        {
          "internalType": "address",
          "name": "originFarmerID",
          "type": "address"
        },
        {
          "internalType": "string",
          "name": "originFarmName",
          "type": "string"
        },
        {
          "internalType": "string",
          "name": "originFarmInformation",
          "type": "string"
        },
        {
          "internalType": "string",
          "name": "originFarmLatitude",
          "type": "string"
        },
        {
          "internalType": "string",
          "name": "originFarmLongitude",
          "type": "string"
        }
      ],
      "stateMutability": "view",
      "type": "function",
      "constant": true
    },
    {
      "inputs": [
        {
          "internalType": "uint256",
          "name": "_upc",
          "type": "uint256"
        }
      ],
      "name": "fetchItemBufferTwo",
      "outputs": [
        {
          "internalType": "uint256",
          "name": "itemSKU",
          "type": "uint256"
        },
        {
          "internalType": "uint256",
          "name": "itemUPC",
          "type": "uint256"
        },
        {
          "internalType": "uint256",
          "name": "productID",
          "type": "uint256"
        },
        {
          "internalType": "string",
          "name": "productNotes",
          "type": "string"
        },
        {
          "internalType": "uint256",
          "name": "productPrice",
          "type": "uint256"
        },
        {
          "internalType": "uint256",
          "name": "itemState",
          "type": "uint256"
        },
        {
          "internalType": "address",
          "name": "distributorID",
          "type": "address"
        },
        {
          "internalType": "address",
          "name": "retailerID",
          "type": "address"
        },
        {
          "internalType": "address",
          "name": "consumerID",
          "type": "address"
        }
      ],
      "stateMutability": "view",
      "type": "function",
      "constant": true
    }
  ],
  "bytecode": "0x608060405262000015336200006c60201b60201c565b33600160006101000a81548173ffffffffffffffffffffffffffffffffffffffff021916908373ffffffffffffffffffffffffffffffffffffffff1602179055506001600381905550600160028190555062000216565b62000087816000620000cd60201b620027b01790919060201c565b8073ffffffffffffffffffffffffffffffffffffffff167f2e0ded4123377a3c2bc9a26f1717655a129e2f20752924d42e730ec89c83dbd060405160405180910390a250565b600073ffffffffffffffffffffffffffffffffffffffff168173ffffffffffffffffffffffffffffffffffffffff1614156200010857600080fd5b6200011a82826200018360201b60201c565b156200012557600080fd5b60018260000160008373ffffffffffffffffffffffffffffffffffffffff1673ffffffffffffffffffffffffffffffffffffffff16815260200190815260200160002060006101000a81548160ff0219169083151502179055505050565b60008073ffffffffffffffffffffffffffffffffffffffff168273ffffffffffffffffffffffffffffffffffffffff161415620001bf57600080fd5b8260000160008373ffffffffffffffffffffffffffffffffffffffff1673ffffffffffffffffffffffffffffffffffffffff16815260200190815260200160002060009054906101000a900460ff16905092915050565b6139ae80620002266000396000f3fe60806040526004361061014b5760003560e01c806380fc0ce4116100b6578063b94290691161006f578063b942906914610471578063d38ea5bf146104ae578063db0e6a2f146104d7578063e7fb74c7146104ee578063f30fc4801461050a578063f61c899a146105335761014b565b806380fc0ce414610351578063834ff739146103685780638ec4f505146103a55780638f0c86fa146103ce578063a20d24ca1461040b578063a26be999146104485761014b565b806361e6982d1161010857806361e6982d14610248578063644241db1461025f57806366225ff9146102765780637250e224146102bb57806377c45913146102e457806380c3f96d146103285761014b565b8063112940f9146101505780632d92356114610179578063333d6a43146101a257806341c0e1b5146101cb57806349dae766146101e25780635da09b881461020b575b600080fd5b34801561015c57600080fd5b5061017760048036038101906101729190612c80565b61055c565b005b34801561018557600080fd5b506101a0600480360381019061019b9190612e30565b61055f565b005b3480156101ae57600080fd5b506101c960048036038101906101c49190612e03565b610726565b005b3480156101d757600080fd5b506101e0610772565b005b3480156101ee57600080fd5b5061020960048036038101906102049190612e03565b610805565b005b34801561021757600080fd5b50610232600480360381019061022d9190612c80565b6109b0565b60405161023f91906131d6565b60405180910390f35b34801561025457600080fd5b5061025d6109b7565b005b34801561026b57600080fd5b506102746109b9565b005b34801561028257600080fd5b5061029d60048036038101906102989190612e03565b6109bb565b6040516102b2999897969594939291906133e8565b60405180910390f35b3480156102c757600080fd5b506102e260048036038101906102dd9190612c80565b610f3d565b005b3480156102f057600080fd5b5061030b60048036038101906103069190612e03565b610f40565b60405161031f98979695949392919061334e565b60405180910390f35b34801561033457600080fd5b5061034f600480360381019061034a9190612c80565b61149e565b005b34801561035d57600080fd5b506103666114bc565b005b34801561037457600080fd5b5061038f600480360381019061038a9190612c80565b6114c7565b60405161039c91906131d6565b60405180910390f35b3480156103b157600080fd5b506103cc60048036038101906103c79190612c80565b6114ce565b005b3480156103da57600080fd5b506103f560048036038101906103f09190612c80565b6114d1565b60405161040291906131d6565b60405180910390f35b34801561041757600080fd5b50610432600480360381019061042d9190612cad565b6114d8565b60405161043f9190613311565b60405180910390f35b34801561045457600080fd5b5061046f600480360381019061046a9190612e03565b611d95565b005b34801561047d57600080fd5b5061049860048036038101906104939190612c80565b611f44565b6040516104a591906131d6565b60405180910390f35b3480156104ba57600080fd5b506104d560048036038101906104d09190612e03565b611f61565b005b3480156104e357600080fd5b506104ec612110565b005b61050860048036038101906105039190612e03565b612112565b005b34801561051657600080fd5b50610531600480360381019061052c9190612e03565b61245a565b005b34801561053f57600080fd5b5061055a60048036038101906105559190612e03565b612605565b005b50565b816002600781111561057457610573613713565b5b60046000838152602001908152602001600020600b0160009054906101000a900460ff1660078111156105aa576105a9613713565b5b146105ea576040517f08c379a00000000000000000000000000000000000000000000000000000000081526004016105e1906132f1565b60405180910390fd5b6004600084815260200190815260200160002060030160009054906101000a900473ffffffffffffffffffffffffffffffffffffffff168073ffffffffffffffffffffffffffffffffffffffff163373ffffffffffffffffffffffffffffffffffffffff161461068f576040517f08c379a000000000000000000000000000000000000000000000000000000000815260040161068690613211565b60405180910390fd5b600360046000868152602001908152602001600020600b0160006101000a81548160ff021916908360078111156106c9576106c8613713565b5b02179055508260046000868152602001908152602001600020600a01819055507f92f64ca637d023f354075a4be751b169c1a8a9ccb6d33cdd0cb3520543995727846040516107189190613333565b60405180910390a150505050565b61072f33611f44565b61073857600080fd5b7f8e55ccfc9778ff8eba1646d765cf1982537ce0f9257054a17b48aad745250183816040516107679190613333565b60405180910390a150565b600160009054906101000a900473ffffffffffffffffffffffffffffffffffffffff1673ffffffffffffffffffffffffffffffffffffffff163373ffffffffffffffffffffffffffffffffffffffff16141561080357600160009054906101000a900473ffffffffffffffffffffffffffffffffffffffff1673ffffffffffffffffffffffffffffffffffffffff16ff5b565b806000600781111561081a57610819613713565b5b60046000838152602001908152602001600020600b0160009054906101000a900460ff1660078111156108505761084f613713565b5b14610890576040517f08c379a000000000000000000000000000000000000000000000000000000000815260040161088790613251565b60405180910390fd5b6004600083815260200190815260200160002060030160009054906101000a900473ffffffffffffffffffffffffffffffffffffffff168073ffffffffffffffffffffffffffffffffffffffff163373ffffffffffffffffffffffffffffffffffffffff1614610935576040517f08c379a000000000000000000000000000000000000000000000000000000000815260040161092c90613211565b60405180910390fd5b600160046000858152602001908152602001600020600b0160006101000a81548160ff0219169083600781111561096f5761096e613713565b5b02179055507f5afe3b1bf87069693c075da5c22a98d63d1aef98a30dbbe538d0781a98b77ee5836040516109a39190613333565b60405180910390a1505050565b6000919050565b565b565b60008060006060600080600080600080600460008c8152602001908152602001600020604051806101e001604052908160008201548152602001600182015481526020016002820160009054906101000a900473ffffffffffffffffffffffffffffffffffffffff1673ffffffffffffffffffffffffffffffffffffffff1673ffffffffffffffffffffffffffffffffffffffff1681526020016003820160009054906101000a900473ffffffffffffffffffffffffffffffffffffffff1673ffffffffffffffffffffffffffffffffffffffff1673ffffffffffffffffffffffffffffffffffffffff168152602001600482018054610aba90613638565b80601f0160208091040260200160405190810160405280929190818152602001828054610ae690613638565b8015610b335780601f10610b0857610100808354040283529160200191610b33565b820191906000526020600020905b815481529060010190602001808311610b1657829003601f168201915b50505050508152602001600582018054610b4c90613638565b80601f0160208091040260200160405190810160405280929190818152602001828054610b7890613638565b8015610bc55780601f10610b9a57610100808354040283529160200191610bc5565b820191906000526020600020905b815481529060010190602001808311610ba857829003601f168201915b50505050508152602001600682018054610bde90613638565b80601f0160208091040260200160405190810160405280929190818152602001828054610c0a90613638565b8015610c575780601f10610c2c57610100808354040283529160200191610c57565b820191906000526020600020905b815481529060010190602001808311610c3a57829003601f168201915b50505050508152602001600782018054610c7090613638565b80601f0160208091040260200160405190810160405280929190818152602001828054610c9c90613638565b8015610ce95780601f10610cbe57610100808354040283529160200191610ce9565b820191906000526020600020905b815481529060010190602001808311610ccc57829003601f168201915b5050505050815260200160088201548152602001600982018054610d0c90613638565b80601f0160208091040260200160405190810160405280929190818152602001828054610d3890613638565b8015610d855780601f10610d5a57610100808354040283529160200191610d85565b820191906000526020600020905b815481529060010190602001808311610d6857829003601f168201915b50505050508152602001600a8201548152602001600b820160009054906101000a900460ff166007811115610dbd57610dbc613713565b5b6007811115610dcf57610dce613713565b5b8152602001600b820160019054906101000a900473ffffffffffffffffffffffffffffffffffffffff1673ffffffffffffffffffffffffffffffffffffffff1673ffffffffffffffffffffffffffffffffffffffff168152602001600c820160009054906101000a900473ffffffffffffffffffffffffffffffffffffffff1673ffffffffffffffffffffffffffffffffffffffff1673ffffffffffffffffffffffffffffffffffffffff168152602001600d820160009054906101000a900473ffffffffffffffffffffffffffffffffffffffff1673ffffffffffffffffffffffffffffffffffffffff1673ffffffffffffffffffffffffffffffffffffffff1681525050905080600001519950806020015198508061010001519750806101200151965080610140015195508061016001516007811115610f1557610f14613713565b5b94508061018001519350806101a001519250806101c001519150509193959799909294969850565b50565b6000806000806060806060806000600460008b8152602001908152602001600020604051806101e001604052908160008201548152602001600182015481526020016002820160009054906101000a900473ffffffffffffffffffffffffffffffffffffffff1673ffffffffffffffffffffffffffffffffffffffff1673ffffffffffffffffffffffffffffffffffffffff1681526020016003820160009054906101000a900473ffffffffffffffffffffffffffffffffffffffff1673ffffffffffffffffffffffffffffffffffffffff1673ffffffffffffffffffffffffffffffffffffffff16815260200160048201805461103d90613638565b80601f016020809104026020016040519081016040528092919081815260200182805461106990613638565b80156110b65780601f1061108b576101008083540402835291602001916110b6565b820191906000526020600020905b81548152906001019060200180831161109957829003601f168201915b505050505081526020016005820180546110cf90613638565b80601f01602080910402602001604051908101604052809291908181526020018280546110fb90613638565b80156111485780601f1061111d57610100808354040283529160200191611148565b820191906000526020600020905b81548152906001019060200180831161112b57829003601f168201915b5050505050815260200160068201805461116190613638565b80601f016020809104026020016040519081016040528092919081815260200182805461118d90613638565b80156111da5780601f106111af576101008083540402835291602001916111da565b820191906000526020600020905b8154815290600101906020018083116111bd57829003601f168201915b505050505081526020016007820180546111f390613638565b80601f016020809104026020016040519081016040528092919081815260200182805461121f90613638565b801561126c5780601f106112415761010080835404028352916020019161126c565b820191906000526020600020905b81548152906001019060200180831161124f57829003601f168201915b505050505081526020016008820154815260200160098201805461128f90613638565b80601f01602080910402602001604051908101604052809291908181526020018280546112bb90613638565b80156113085780601f106112dd57610100808354040283529160200191611308565b820191906000526020600020905b8154815290600101906020018083116112eb57829003601f168201915b50505050508152602001600a8201548152602001600b820160009054906101000a900460ff1660078111156113405761133f613713565b5b600781111561135257611351613713565b5b8152602001600b820160019054906101000a900473ffffffffffffffffffffffffffffffffffffffff1673ffffffffffffffffffffffffffffffffffffffff1673ffffffffffffffffffffffffffffffffffffffff168152602001600c820160009054906101000a900473ffffffffffffffffffffffffffffffffffffffff1673ffffffffffffffffffffffffffffffffffffffff1673ffffffffffffffffffffffffffffffffffffffff168152602001600d820160009054906101000a900473ffffffffffffffffffffffffffffffffffffffff1673ffffffffffffffffffffffffffffffffffffffff1673ffffffffffffffffffffffffffffffffffffffff1681525050905080600001519850806020015197508060400151965080606001519550806080015194508060a0015193508060c0015192508060e00151915050919395975091939597565b6114a733611f44565b6114b057600080fd5b6114b98161285c565b50565b6114c5336128b6565b565b6000919050565b50565b6000919050565b6114e0612a4d565b6000604051806101e00160405280600354815260200160025481526020018c73ffffffffffffffffffffffffffffffffffffffff1681526020018c73ffffffffffffffffffffffffffffffffffffffff1681526020018b81526020018a815260200189815260200188815260200160025460035461155e91906134ff565b8152602001878152602001600081526020016000600781111561158457611583613713565b5b81526020018673ffffffffffffffffffffffffffffffffffffffff1681526020018573ffffffffffffffffffffffffffffffffffffffff1681526020018473ffffffffffffffffffffffffffffffffffffffff16815250905080600460006002548152602001908152602001600020600082015181600001556020820151816001015560408201518160020160006101000a81548173ffffffffffffffffffffffffffffffffffffffff021916908373ffffffffffffffffffffffffffffffffffffffff16021790555060608201518160030160006101000a81548173ffffffffffffffffffffffffffffffffffffffff021916908373ffffffffffffffffffffffffffffffffffffffff16021790555060808201518160040190805190602001906116b1929190612b43565b5060a08201518160050190805190602001906116ce929190612b43565b5060c08201518160060190805190602001906116eb929190612b43565b5060e0820151816007019080519060200190611708929190612b43565b506101008201518160080155610120820151816009019080519060200190611731929190612b43565b5061014082015181600a015561016082015181600b0160006101000a81548160ff0219169083600781111561176957611768613713565b5b021790555061018082015181600b0160016101000a81548173ffffffffffffffffffffffffffffffffffffffff021916908373ffffffffffffffffffffffffffffffffffffffff1602179055506101a082015181600c0160006101000a81548173ffffffffffffffffffffffffffffffffffffffff021916908373ffffffffffffffffffffffffffffffffffffffff1602179055506101c082015181600d0160006101000a81548173ffffffffffffffffffffffffffffffffffffffff021916908373ffffffffffffffffffffffffffffffffffffffff160217905550905050600460006002548152602001908152602001600020604051806101e001604052908160008201548152602001600182015481526020016002820160009054906101000a900473ffffffffffffffffffffffffffffffffffffffff1673ffffffffffffffffffffffffffffffffffffffff1673ffffffffffffffffffffffffffffffffffffffff1681526020016003820160009054906101000a900473ffffffffffffffffffffffffffffffffffffffff1673ffffffffffffffffffffffffffffffffffffffff1673ffffffffffffffffffffffffffffffffffffffff16815260200160048201805461193a90613638565b80601f016020809104026020016040519081016040528092919081815260200182805461196690613638565b80156119b35780601f10611988576101008083540402835291602001916119b3565b820191906000526020600020905b81548152906001019060200180831161199657829003601f168201915b505050505081526020016005820180546119cc90613638565b80601f01602080910402602001604051908101604052809291908181526020018280546119f890613638565b8015611a455780601f10611a1a57610100808354040283529160200191611a45565b820191906000526020600020905b815481529060010190602001808311611a2857829003601f168201915b50505050508152602001600682018054611a5e90613638565b80601f0160208091040260200160405190810160405280929190818152602001828054611a8a90613638565b8015611ad75780601f10611aac57610100808354040283529160200191611ad7565b820191906000526020600020905b815481529060010190602001808311611aba57829003601f168201915b50505050508152602001600782018054611af090613638565b80601f0160208091040260200160405190810160405280929190818152602001828054611b1c90613638565b8015611b695780601f10611b3e57610100808354040283529160200191611b69565b820191906000526020600020905b815481529060010190602001808311611b4c57829003601f168201915b5050505050815260200160088201548152602001600982018054611b8c90613638565b80601f0160208091040260200160405190810160405280929190818152602001828054611bb890613638565b8015611c055780601f10611bda57610100808354040283529160200191611c05565b820191906000526020600020905b815481529060010190602001808311611be857829003601f168201915b50505050508152602001600a8201548152602001600b820160009054906101000a900460ff166007811115611c3d57611c3c613713565b5b6007811115611c4f57611c4e613713565b5b8152602001600b820160019054906101000a900473ffffffffffffffffffffffffffffffffffffffff1673ffffffffffffffffffffffffffffffffffffffff1673ffffffffffffffffffffffffffffffffffffffff168152602001600c820160009054906101000a900473ffffffffffffffffffffffffffffffffffffffff1673ffffffffffffffffffffffffffffffffffffffff1673ffffffffffffffffffffffffffffffffffffffff168152602001600d820160009054906101000a900473ffffffffffffffffffffffffffffffffffffffff1673ffffffffffffffffffffffffffffffffffffffff1673ffffffffffffffffffffffffffffffffffffffff1681525050915060036000815480929190611d6a9061369b565b919050555060026000815480929190611d829061369b565b9190505550509998505050505050505050565b8060056007811115611daa57611da9613713565b5b60046000838152602001908152602001600020600b0160009054906101000a900460ff166007811115611de057611ddf613713565b5b14611e20576040517f08c379a0000000000000000000000000000000000000000000000000000000008152600401611e17906132d1565b60405180910390fd5b336004600084815260200190815260200160002060020160006101000a81548173ffffffffffffffffffffffffffffffffffffffff021916908373ffffffffffffffffffffffffffffffffffffffff1602179055503360046000848152602001908152602001600020600c0160006101000a81548173ffffffffffffffffffffffffffffffffffffffff021916908373ffffffffffffffffffffffffffffffffffffffff160217905550600660046000848152602001908152602001600020600b0160006101000a81548160ff02191690836007811115611f0457611f03613713565b5b02179055507fa8142743f8f70a4c26f3691cf4ed59718381fb2f18070ec52be1f1022d85555782604051611f389190613333565b60405180910390a15050565b6000611f5a82600061291090919063ffffffff16565b9050919050565b8060066007811115611f7657611f75613713565b5b60046000838152602001908152602001600020600b0160009054906101000a900460ff166007811115611fac57611fab613713565b5b14611fec576040517f08c379a0000000000000000000000000000000000000000000000000000000008152600401611fe390613271565b60405180910390fd5b336004600084815260200190815260200160002060020160006101000a81548173ffffffffffffffffffffffffffffffffffffffff021916908373ffffffffffffffffffffffffffffffffffffffff1602179055503360046000848152602001908152602001600020600d0160006101000a81548173ffffffffffffffffffffffffffffffffffffffff021916908373ffffffffffffffffffffffffffffffffffffffff160217905550600760046000848152602001908152602001600020600b0160006101000a81548160ff021916908360078111156120d0576120cf613713565b5b02179055507f653d56639fee6b566a5c804764e9689de38645f0b733df89a36a1b7b42173dd8826040516121049190613333565b60405180910390a15050565b565b806003600781111561212757612126613713565b5b60046000838152602001908152602001600020600b0160009054906101000a900460ff16600781111561215d5761215c613713565b5b1461219d576040517f08c379a0000000000000000000000000000000000000000000000000000000008152600401612194906132b1565b60405180910390fd5b60046000838152602001908152602001600020600a0154803410156121f7576040517f08c379a00000000000000000000000000000000000000000000000000000000081526004016121ee906131f1565b60405180910390fd5b82336004600086815260200190815260200160002060020160006101000a81548173ffffffffffffffffffffffffffffffffffffffff021916908373ffffffffffffffffffffffffffffffffffffffff1602179055503360046000868152602001908152602001600020600b0160016101000a81548173ffffffffffffffffffffffffffffffffffffffff021916908373ffffffffffffffffffffffffffffffffffffffff1602179055506004806000868152602001908152602001600020600b0160006101000a81548160ff021916908360078111156122db576122da613713565b5b02179055506004600085815260200190815260200160002060030160009054906101000a900473ffffffffffffffffffffffffffffffffffffffff1673ffffffffffffffffffffffffffffffffffffffff166108fc60046000878152602001908152602001600020600a01549081150290604051600060405180830381858888f19350505050158015612372573d6000803e3d6000fd5b507f92f64ca637d023f354075a4be751b169c1a8a9ccb6d33cdd0cb3520543995727846040516123a29190613333565b60405180910390a1600060046000838152602001908152602001600020600a01549050600081346123d39190613555565b905060046000848152602001908152602001600020600d0160009054906101000a900473ffffffffffffffffffffffffffffffffffffffff1673ffffffffffffffffffffffffffffffffffffffff166108fc829081150290604051600060405180830381858888f19350505050158015612451573d6000803e3d6000fd5b50505050505050565b806001600781111561246f5761246e613713565b5b60046000838152602001908152602001600020600b0160009054906101000a900460ff1660078111156124a5576124a4613713565b5b146124e5576040517f08c379a00000000000000000000000000000000000000000000000000000000081526004016124dc90613231565b60405180910390fd5b6004600083815260200190815260200160002060030160009054906101000a900473ffffffffffffffffffffffffffffffffffffffff168073ffffffffffffffffffffffffffffffffffffffff163373ffffffffffffffffffffffffffffffffffffffff161461258a576040517f08c379a000000000000000000000000000000000000000000000000000000000815260040161258190613211565b60405180910390fd5b600260046000858152602001908152602001600020600b0160006101000a81548160ff021916908360078111156125c4576125c3613713565b5b02179055507f9b3b66e2380b690bae22c73ef1428fb0c91e72fe14a4b6defa13035214187aff836040516125f89190613333565b60405180910390a1505050565b806004600781111561261a57612619613713565b5b60046000838152602001908152602001600020600b0160009054906101000a900460ff1660078111156126505761264f613713565b5b14612690576040517f08c379a000000000000000000000000000000000000000000000000000000000815260040161268790613291565b60405180910390fd5b60046000838152602001908152602001600020600b0160019054906101000a900473ffffffffffffffffffffffffffffffffffffffff168073ffffffffffffffffffffffffffffffffffffffff163373ffffffffffffffffffffffffffffffffffffffff1614612735576040517f08c379a000000000000000000000000000000000000000000000000000000000815260040161272c90613211565b60405180910390fd5b600560046000858152602001908152602001600020600b0160006101000a81548160ff0219169083600781111561276f5761276e613713565b5b02179055507ff00b9a5725b80c54016f42114f6ed7792d22eecb116011c4afac29c57bef6c95836040516127a39190613333565b60405180910390a1505050565b600073ffffffffffffffffffffffffffffffffffffffff168173ffffffffffffffffffffffffffffffffffffffff1614156127ea57600080fd5b6127f48282612910565b156127fe57600080fd5b60018260000160008373ffffffffffffffffffffffffffffffffffffffff1673ffffffffffffffffffffffffffffffffffffffff16815260200190815260200160002060006101000a81548160ff0219169083151502179055505050565b6128708160006127b090919063ffffffff16565b8073ffffffffffffffffffffffffffffffffffffffff167f2e0ded4123377a3c2bc9a26f1717655a129e2f20752924d42e730ec89c83dbd060405160405180910390a250565b6128ca8160006129a290919063ffffffff16565b8073ffffffffffffffffffffffffffffffffffffffff167fa5e0f060af304ab17dd418c7927e3da3ae7868189bf387aee09ab179ccc572f260405160405180910390a250565b60008073ffffffffffffffffffffffffffffffffffffffff168273ffffffffffffffffffffffffffffffffffffffff16141561294b57600080fd5b8260000160008373ffffffffffffffffffffffffffffffffffffffff1673ffffffffffffffffffffffffffffffffffffffff16815260200190815260200160002060009054906101000a900460ff16905092915050565b600073ffffffffffffffffffffffffffffffffffffffff168173ffffffffffffffffffffffffffffffffffffffff1614156129dc57600080fd5b6129e68282612910565b6129ef57600080fd5b60008260000160008373ffffffffffffffffffffffffffffffffffffffff1673ffffffffffffffffffffffffffffffffffffffff16815260200190815260200160002060006101000a81548160ff0219169083151502179055505050565b604051806101e001604052806000815260200160008152602001600073ffffffffffffffffffffffffffffffffffffffff168152602001600073ffffffffffffffffffffffffffffffffffffffff1681526020016060815260200160608152602001606081526020016060815260200160008152602001606081526020016000815260200160006007811115612ae657612ae5613713565b5b8152602001600073ffffffffffffffffffffffffffffffffffffffff168152602001600073ffffffffffffffffffffffffffffffffffffffff168152602001600073ffffffffffffffffffffffffffffffffffffffff1681525090565b828054612b4f90613638565b90600052602060002090601f016020900481019282612b715760008555612bb8565b82601f10612b8a57805160ff1916838001178555612bb8565b82800160010185558215612bb8579182015b82811115612bb7578251825591602001919060010190612b9c565b5b509050612bc59190612bc9565b5090565b5b80821115612be2576000816000905550600101612bca565b5090565b6000612bf9612bf4846134a1565b61347c565b905082815260208101848484011115612c1557612c146137a5565b5b612c208482856135f6565b509392505050565b600081359050612c378161394a565b92915050565b600082601f830112612c5257612c516137a0565b5b8135612c62848260208601612be6565b91505092915050565b600081359050612c7a81613961565b92915050565b600060208284031215612c9657612c956137af565b5b6000612ca484828501612c28565b91505092915050565b60008060008060008060008060006101208a8c031215612cd057612ccf6137af565b5b6000612cde8c828d01612c28565b99505060208a013567ffffffffffffffff811115612cff57612cfe6137aa565b5b612d0b8c828d01612c3d565b98505060408a013567ffffffffffffffff811115612d2c57612d2b6137aa565b5b612d388c828d01612c3d565b97505060608a013567ffffffffffffffff811115612d5957612d586137aa565b5b612d658c828d01612c3d565b96505060808a013567ffffffffffffffff811115612d8657612d856137aa565b5b612d928c828d01612c3d565b95505060a08a013567ffffffffffffffff811115612db357612db26137aa565b5b612dbf8c828d01612c3d565b94505060c0612dd08c828d01612c28565b93505060e0612de18c828d01612c28565b925050610100612df38c828d01612c28565b9150509295985092959850929598565b600060208284031215612e1957612e186137af565b5b6000612e2784828501612c6b565b91505092915050565b60008060408385031215612e4757612e466137af565b5b6000612e5585828601612c6b565b9250506020612e6685828601612c6b565b9150509250929050565b612e7981613589565b82525050565b612e8881613589565b82525050565b612e978161359b565b82525050565b612ea6816135e4565b82525050565b6000612eb7826134d2565b612ec181856134dd565b9350612ed1818560208601613605565b612eda816137b4565b840191505092915050565b6000612ef0826134d2565b612efa81856134ee565b9350612f0a818560208601613605565b612f13816137b4565b840191505092915050565b6000612f2b601a836134ee565b9150612f36826137c5565b602082019050919050565b6000612f4e601b836134ee565b9150612f59826137ee565b602082019050919050565b6000612f716018836134ee565b9150612f7c82613817565b602082019050919050565b6000612f946018836134ee565b9150612f9f82613840565b602082019050919050565b6000612fb76017836134ee565b9150612fc282613869565b602082019050919050565b6000612fda6013836134ee565b9150612fe582613892565b602082019050919050565b6000612ffd6016836134ee565b9150613008826138bb565b602082019050919050565b60006130206016836134ee565b915061302b826138e4565b602082019050919050565b60006130436015836134ee565b915061304e8261390d565b602082019050919050565b60006101e08301600083015161307260008601826131b8565b50602083015161308560208601826131b8565b5060408301516130986040860182612e70565b5060608301516130ab6060860182612e70565b50608083015184820360808601526130c38282612eac565b91505060a083015184820360a08601526130dd8282612eac565b91505060c083015184820360c08601526130f78282612eac565b91505060e083015184820360e08601526131118282612eac565b9150506101008301516131286101008601826131b8565b506101208301518482036101208601526131428282612eac565b9150506101408301516131596101408601826131b8565b5061016083015161316e610160860182612e9d565b50610180830151613183610180860182612e70565b506101a08301516131986101a0860182612e70565b506101c08301516131ad6101c0860182612e70565b508091505092915050565b6131c1816135da565b82525050565b6131d0816135da565b82525050565b60006020820190506131eb6000830184612e8e565b92915050565b6000602082019050818103600083015261320a81612f1e565b9050919050565b6000602082019050818103600083015261322a81612f41565b9050919050565b6000602082019050818103600083015261324a81612f64565b9050919050565b6000602082019050818103600083015261326a81612f87565b9050919050565b6000602082019050818103600083015261328a81612faa565b9050919050565b600060208201905081810360008301526132aa81612fcd565b9050919050565b600060208201905081810360008301526132ca81612ff0565b9050919050565b600060208201905081810360008301526132ea81613013565b9050919050565b6000602082019050818103600083015261330a81613036565b9050919050565b6000602082019050818103600083015261332b8184613059565b905092915050565b600060208201905061334860008301846131c7565b92915050565b600061010082019050613364600083018b6131c7565b613371602083018a6131c7565b61337e6040830189612e7f565b61338b6060830188612e7f565b818103608083015261339d8187612ee5565b905081810360a08301526133b18186612ee5565b905081810360c08301526133c58185612ee5565b905081810360e08301526133d98184612ee5565b90509998505050505050505050565b6000610120820190506133fe600083018c6131c7565b61340b602083018b6131c7565b613418604083018a6131c7565b818103606083015261342a8189612ee5565b905061343960808301886131c7565b61344660a08301876131c7565b61345360c0830186612e7f565b61346060e0830185612e7f565b61346e610100830184612e7f565b9a9950505050505050505050565b6000613486613497565b9050613492828261366a565b919050565b6000604051905090565b600067ffffffffffffffff8211156134bc576134bb613771565b5b6134c5826137b4565b9050602081019050919050565b600081519050919050565b600082825260208201905092915050565b600082825260208201905092915050565b600061350a826135da565b9150613515836135da565b9250827fffffffffffffffffffffffffffffffffffffffffffffffffffffffffffffffff0382111561354a576135496136e4565b5b828201905092915050565b6000613560826135da565b915061356b836135da565b92508282101561357e5761357d6136e4565b5b828203905092915050565b6000613594826135ba565b9050919050565b60008115159050919050565b60008190506135b582613936565b919050565b600073ffffffffffffffffffffffffffffffffffffffff82169050919050565b6000819050919050565b60006135ef826135a7565b9050919050565b82818337600083830152505050565b60005b83811015613623578082015181840152602081019050613608565b83811115613632576000848401525b50505050565b6000600282049050600182168061365057607f821691505b6020821081141561366457613663613742565b5b50919050565b613673826137b4565b810181811067ffffffffffffffff8211171561369257613691613771565b5b80604052505050565b60006136a6826135da565b91507fffffffffffffffffffffffffffffffffffffffffffffffffffffffffffffffff8214156136d9576136d86136e4565b5b600182019050919050565b7f4e487b7100000000000000000000000000000000000000000000000000000000600052601160045260246000fd5b7f4e487b7100000000000000000000000000000000000000000000000000000000600052602160045260246000fd5b7f4e487b7100000000000000000000000000000000000000000000000000000000600052602260045260246000fd5b7f4e487b7100000000000000000000000000000000000000000000000000000000600052604160045260246000fd5b600080fd5b600080fd5b600080fd5b600080fd5b6000601f19601f8301169050919050565b7f6d6f646966696572207061696420656e6f756768206572726f72000000000000600082015250565b7f6d6f6469666965722076657269667943616c6c6572206572726f720000000000600082015250565b7f6d6f6469666965722070726f636573736564206572726f720000000000000000600082015250565b7f6d6f64696669657220686172766573746564206572726f720000000000000000600082015250565b7f6d6f646966696572207265636569766564206572726f72000000000000000000600082015250565b7f6d6f64696669657220736f6c64206572726f7200000000000000000000000000600082015250565b7f6d6f64696669657220666f7273616c65206572726f7200000000000000000000600082015250565b7f6d6f6469666965722073686970706564206572726f7200000000000000000000600082015250565b7f6d6f646966696572207061636b6564206572726f720000000000000000000000600082015250565b6008811061394757613946613713565b5b50565b61395381613589565b811461395e57600080fd5b50565b61396a816135da565b811461397557600080fd5b5056fea2646970667358221220544706086b0ecfc4fb8e781f74ca2b2395e16e9cbdb1d6eaa51e7955862609f264736f6c63430008060033",
  "immutableReferences": {},
  "source": "// SPDX-License-Identifier: MIT\npragma solidity >=0.8.6;\n\n// Define a contract 'Supplychain'\nimport \"./../coffeeaccesscontrol/ConsumerRole.sol\";\nimport \"./../coffeeaccesscontrol/DistributorRole.sol\";\nimport \"./../coffeeaccesscontrol/FarmerRole.sol\";\nimport \"./../coffeeaccesscontrol/RetailerRole.sol\";\n\ncontract SupplyChain is ConsumerRole, FarmerRole, DistributorRole, RetailerRole {\n\n  // Define 'owner'\n  address owner;\n\n  // Define a variable called 'upc' for Universal Product Code (UPC)\n  uint  upc;\n\n  // Define a variable called 'sku' for Stock Keeping Unit (SKU)\n  uint  sku;\n\n  // Define a public mapping 'items' that maps the UPC to an Item.\n  mapping (uint => Item) items;\n\n  // Define a public mapping 'itemsHistory' that maps the UPC to an array of TxHash, \n  // that track its journey through the supply chain -- to be sent from DApp.\n  mapping (uint => string[]) itemsHistory;\n  \n  // Define enum 'State' with the following values:\n  enum State \n  { \n    Harvested,  // 0\n    Processed,  // 1\n    Packed,     // 2\n    ForSale,    // 3\n    Sold,       // 4\n    Shipped,    // 5\n    Received,   // 6\n    Purchased   // 7\n    }\n\n  State constant defaultState = State.Harvested;\n\n  // Define a struct 'Item' with the following fields:\n  struct Item {\n    uint    sku;  // Stock Keeping Unit (SKU)\n    uint    upc; // Universal Product Code (UPC), generated by the Farmer, goes on the package, can be verified by the Consumer\n    address ownerID;  // Metamask-Ethereum address of the current owner as the product moves through 8 stages\n    address originFarmerID; // Metamask-Ethereum address of the Farmer\n    string  originFarmName; // Farmer Name\n    string  originFarmInformation;  // Farmer Information\n    string  originFarmLatitude; // Farm Latitude\n    string  originFarmLongitude;  // Farm Longitude\n    uint    productID;  // Product ID potentially a combination of upc + sku\n    string  productNotes; // Product Notes\n    uint    productPrice; // Product Price\n    State   itemState;  // Product State as represented in the enum above\n    address distributorID;  // Metamask-Ethereum address of the Distributor\n    address retailerID; // Metamask-Ethereum address of the Retailer\n    address consumerID; // Metamask-Ethereum address of the Consumer\n  }\n\n  // Define 8 events with the same 8 state values and accept 'upc' as input argument\n  event Harvested(uint upc);\n  event Processed(uint upc);\n  event Packed(uint upc);\n  event ForSale(uint upc);\n  event Sold(uint upc);\n  event Shipped(uint upc);\n  event Received(uint upc);\n  event Purchased(uint upc);\n\n  // Define a modifer that checks to see if msg.sender == owner of the contract\n  modifier onlyOwner() {\n    require(msg.sender == owner, \"modifier only owner error\");\n    _;\n  }\n\n  // Define a modifer that verifies the Caller\n  modifier verifyCaller (address _address) {\n    require(msg.sender == _address, \"modifier verifyCaller error\"); \n    _;\n  }\n\n  // Define a modifier that checks if the paid amount is sufficient to cover the price\n  modifier paidEnough(uint _price) { \n    require(msg.value >= _price, \"modifier paid enough error\"); \n    _;\n  }\n  \n  // Define a modifier that checks the price and refunds the remaining balance\n  modifier checkValue(uint _upc) {\n    _;\n    uint _price = items[_upc].productPrice;\n    uint amountToReturn = msg.value - _price;\n    payable(items[_upc].consumerID).transfer(amountToReturn);\n  }\n\n  // Define a modifier that checks if an item.state of a upc is Harvested\n  modifier harvested(uint _upc) {\n    require(items[_upc].itemState == State.Harvested, \"modifier harvested error\");\n    _;\n  }\n\n  // Define a modifier that checks if an item.state of a upc is Processed\n  modifier processed(uint _upc) {\n    require(items[_upc].itemState == State.Processed, \"modifier processed error\");\n    _;\n  }\n  \n  // Define a modifier that checks if an item.state of a upc is Packed\n  modifier packed(uint _upc) {\n  require(items[_upc].itemState == State.Packed, \"modifier packed error\");\n    _;\n  }\n\n  // Define a modifier that checks if an item.state of a upc is ForSale\n  modifier forSale(uint _upc) {\n    require(items[_upc].itemState == State.ForSale, \"modifier forsale error\");\n    _;\n  }\n\n  // Define a modifier that checks if an item.state of a upc is Sold\n  modifier sold(uint _upc) {\n    require(items[_upc].itemState == State.Sold, \"modifier sold error\");\n    _;\n  }\n  \n  // Define a modifier that checks if an item.state of a upc is Shipped\n  modifier shipped(uint _upc) {\n    require(items[_upc].itemState == State.Shipped, \"modifier shipped error\");\n    _;\n  }\n\n  // Define a modifier that checks if an item.state of a upc is Received\n  modifier received(uint _upc) {\n    require(items[_upc].itemState == State.Received, \"modifier received error\");\n    _;\n  }\n\n  // Define a modifier that checks if an item.state of a upc is Purchased\n  modifier purchased(uint _upc) {\n    require(items[_upc].itemState == State.Purchased, \"modifier purchased error\");\n    _;\n  }\n\n  // In the constructor set 'owner' to the address that instantiated the contract\n  // and set 'sku' to 1\n  // and set 'upc' to 1\n  constructor()  payable {\n    owner = msg.sender;\n    sku = 1;\n    upc = 1;\n  }\n\n  // Define a function 'kill' if required\n  function kill() public {\n    if (msg.sender == owner) {\n      selfdestruct(payable(owner));\n    }\n  }\n\n  function register(\n    address _originFarmerID, \n    string memory _originFarmName, \n    string memory _originFarmInformation, \n    string memory _originFarmLatitude, \n    string memory _originFarmLongitude, \n    string memory _productNotes, \n    address _distributorID, \n    address _retailerID, \n    address _consumerID ) public returns (Item memory itemReturn){\n \n\n  Item memory item = Item({\n        sku: sku,\n        upc: upc,\n        ownerID: _originFarmerID,\n        originFarmerID: _originFarmerID,\n        originFarmName: _originFarmName,\n        originFarmInformation: _originFarmInformation,\n        originFarmLatitude: _originFarmLatitude,\n        originFarmLongitude: _originFarmLongitude,\n        productID: sku+upc,\n        productNotes: _productNotes,\n        productPrice: 0,\n        itemState: defaultState,\n        distributorID: _distributorID,\n        retailerID: _retailerID,\n        consumerID: _consumerID\n    });\n    \n    items[upc] = item;\n    itemReturn = items[upc];\n    sku++;\n    upc++;\n  }\n\n  // Define a function 'harvestItem' that allows a farmer to mark an item 'Harvested'\n /* function harvestItem(uint _upc, address _originFarmerID, string memory _originFarmName, string memory _originFarmInformation, string memory _originFarmLatitude, \n                            string memory _originFarmLongitude, string memory _productNotes) public onlyFarmer*/\n  function harvestItem(uint _upc) public onlyFarmer\n  {\n    // Add the new item as part of Harvest\n    /*----------*/\n   /* Item memory item = Item({\n        sku: sku,\n        upc: _upc,\n        ownerID: _originFarmerID,\n        originFarmerID: _originFarmerID,\n        originFarmName: _originFarmName,\n        originFarmInformation: _originFarmInformation,\n        originFarmLatitude: _originFarmLatitude,\n        originFarmLongitude: _originFarmLongitude,\n        productID: sku+_upc,\n        productNotes: _productNotes,\n        productPrice: 0,\n        itemState: defaultState\n        distributorID: address(0),\n        retailerID: address(0),\n        consumerID: address(0)\n    });*/\n    //items[_upc] = item;\n    \n    // Increment sku\n   // sku = sku + 1;\n    // Emit the appropriate event\n    /*------*/\n     emit Harvested(_upc);\n    \n  }\n\n  // Define a function 'processtItem' that allows a farmer to mark an item 'Processed'\n  function processItem(uint _upc) public harvested(_upc) verifyCaller(items[_upc].originFarmerID)\n  // Call modifier to check if upc has passed previous supply chain stage\n  // Call modifier to verify caller of this function\n  \n  {\n    // Update the appropriate fields\n    items[_upc].itemState = State.Processed;\n    // Emit the appropriate event\n    emit Processed(_upc);\n    \n  }\n\n  // Define a function 'packItem' that allows a farmer to mark an item 'Packed'\n  function packItem(uint _upc) public processed(_upc) verifyCaller(items[_upc].originFarmerID)\n  // Call modifier to check if upc has passed previous supply chain stage\n  // Call modifier to verify caller of this function\n  \n  {\n    // Update the appropriate fields\n    items[_upc].itemState = State.Packed;\n    // Emit the appropriate event\n    emit Packed(_upc);\n    \n  }\n\n  // Define a function 'sellItem' that allows a farmer to mark an item 'ForSale'\n  function sellItem(uint _upc, uint _price) public  packed(_upc) verifyCaller(items[_upc].originFarmerID)\n  // Call modifier to check if upc has passed previous supply chain stage\n  // Call modifier to verify caller of this function\n  \n  {\n    // Update the appropriate fields\n     items[_upc].itemState = State.ForSale;\n     items[_upc].productPrice = _price;\n    // Emit the appropriate event\n    emit Sold(_upc);\n    \n  }\n\n  // Define a function 'buyItem' that allows the disributor to mark an item 'Sold'\n  // Use the above defined modifiers to check if the item is available for sale, if the buyer has paid enough, \n  // and any excess ether sent is refunded back to the buyer\n  // Call modifier to check if upc has passed previous supply chain stage\n  // Call modifer to check if buyer has paid enough\n  // Call modifer to send any excess ether back to buyer\n  function buyItem(uint _upc) public payable forSale(_upc) paidEnough(items[_upc].productPrice) checkValue(_upc)\n    \n    \n    {\n    \n    // Update the appropriate fields - ownerID, distributorID, itemState\n    items[_upc].ownerID = msg.sender;\n    items[_upc].distributorID = msg.sender;\n    items[_upc].itemState = State.Sold;\n    \n    // Transfer money to farmer\n     payable(items[_upc].originFarmerID).transfer(items[_upc].productPrice);\n    \n    // emit the appropriate event\n    emit Sold(_upc);\n    \n  }\n\n  // Define a function 'shipItem' that allows the distributor to mark an item 'Shipped'\n  // Use the above modifers to check if the item is sold\n  function shipItem(uint _upc) public sold(_upc) verifyCaller(items[_upc].distributorID)\n    // Call modifier to check if upc has passed previous supply chain stage\n    \n    // Call modifier to verify caller of this function\n    \n    {\n    // Update the appropriate fields\n    items[_upc].itemState = State.Shipped;\n    // Emit the appropriate event\n    emit Shipped(_upc);\n  }\n\n  // Define a function 'receiveItem' that allows the retailer to mark an item 'Received'\n  // Use the above modifiers to check if the item is shipped\n  function receiveItem(uint _upc) public shipped(_upc) onlyRetailer\n    // Call modifier to check if upc has passed previous supply chain stage\n    \n    // Access Control List enforced by calling Smart Contract / DApp\n    {\n    // Update the appropriate fields - ownerID, retailerID, itemState\n      items[_upc].ownerID = msg.sender;\n      items[_upc].retailerID = msg.sender;\n      items[_upc].itemState = State.Received;\n    \n    // Emit the appropriate event\n     emit Received(_upc);\n    \n  }\n\n  // Define a function 'purchaseItem' that allows the consumer to mark an item 'Purchased'\n  // Use the above modifiers to check if the item is received\n  // Call modifier to check if upc has passed previous supply chain stage\n    // Access Control List enforced by calling Smart Contract / DApp\n  function purchaseItem(uint _upc) public  received(_upc) onlyConsumer\n    \n    {\n    // Update the appropriate fields - ownerID, consumerID, itemState\n        items[_upc].ownerID = msg.sender;\n        items[_upc].consumerID = msg.sender;\n        items[_upc].itemState = State.Purchased;\n    // Emit the appropriate event\n     emit Purchased(_upc);\n  }\n\n  // Define a function 'fetchItemBufferOne' that fetches the data\n  function fetchItemBufferOne(uint _upc) public view returns \n    (uint itemSKU, uint itemUPC, address ownerID, address originFarmerID, string memory originFarmName, string memory originFarmInformation,\n    string memory originFarmLatitude, string memory originFarmLongitude ) \n  {\n  // Assign values to the 8 parameters\n    Item memory item = items[_upc];\n\n      itemSKU = item.sku;\n      itemUPC = item.upc;\n      ownerID  = item.ownerID;\n      originFarmerID = item.originFarmerID;\n      originFarmName = item.originFarmName;\n      originFarmInformation = item.originFarmInformation;\n      originFarmLatitude = item.originFarmLatitude;\n      originFarmLongitude = item.originFarmLongitude;\n    \n    return \n      ( itemSKU, itemUPC, ownerID, originFarmerID, originFarmName, originFarmInformation, originFarmLatitude, originFarmLongitude );\n  }\n\n  // Define a function 'fetchItemBufferTwo' that fetches the data\n  function fetchItemBufferTwo(uint _upc) public view returns \n  (uint itemSKU,uint itemUPC,uint productID,string memory productNotes,uint productPrice,uint itemState,address distributorID,address retailerID,address consumerID ) \n  {\n    Item memory item = items[_upc];\n    \n    itemSKU = item.sku;\n    itemUPC = item.upc;\n    productID = item.productID;\n    productNotes = item.productNotes;\n    productPrice = item.productPrice;\n    itemState = uint256(item.itemState);\n    distributorID = item.distributorID;\n    retailerID = item.retailerID;\n    consumerID = item.consumerID;\n    // Assign values to the 9 parameters\n\n     /*\n struct Item {\n    uint    sku;  // Stock Keeping Unit (SKU)\n    uint    upc; // Universal Product Code (UPC), generated by the Farmer, goes on the package, can be verified by the Consumer\n    address ownerID;  // Metamask-Ethereum address of the current owner as the product moves through 8 stages\n    address originFarmerID; // Metamask-Ethereum address of the Farmer\n    string  originFarmName; // Farmer Name\n    string  originFarmInformation;  // Farmer Information\n    string  originFarmLatitude; // Farm Latitude\n    string  originFarmLongitude;  // Farm Longitude\n    uint    productID;  // Product ID potentially a combination of upc + sku\n    string  productNotes; // Product Notes\n    uint    productPrice; // Product Price\n    State   itemState;  // Product State as represented in the enum above\n    address distributorID;  // Metamask-Ethereum address of the Distributor\n    address retailerID; // Metamask-Ethereum address of the Retailer\n    address consumerID; // Metamask-Ethereum address of the Consumer\n  }\n    */\n    \n//  return     (itemSKU, itemUPC, productID, productNotes, productPrice, itemState, distributorID, retailerID, consumerID  );\n  }\n}\n",
  "sourcePath": "A:\\blockchain\\BC_project3\\proba_react\\contracts\\coffeebase\\SupplyChain.sol",
  "compiler": {
    "name": "solc",
    "version": "0.8.6+commit.11564f7e.Emscripten.clang"
  },
  "schemaVersion": "3.4.2",
  "updatedAt": "2021-08-08T22:02:30.011Z",
  "networkType": "ethereum",
  "devdoc": {
    "kind": "dev",
    "methods": {},
    "version": 1
  },
  "userdoc": {
    "kind": "user",
    "methods": {},
    "version": 1
  }
}