{
  "contractName": "SupplyChain",
  "abi": [
    {
      "inputs": [],
      "stateMutability": "payable",
      "type": "constructor",
      "payable": true
    },
    {
      "anonymous": false,
      "inputs": [
        {
          "indexed": true,
          "internalType": "address",
          "name": "account",
          "type": "address"
        }
      ],
      "name": "ConsumerAdded",
      "type": "event"
    },
    {
      "anonymous": false,
      "inputs": [
        {
          "indexed": true,
          "internalType": "address",
          "name": "account",
          "type": "address"
        }
      ],
      "name": "ConsumerRemoved",
      "type": "event"
    },
    {
      "anonymous": false,
      "inputs": [
        {
          "indexed": true,
          "internalType": "address",
          "name": "account",
          "type": "address"
        }
      ],
      "name": "DistributorAdded",
      "type": "event"
    },
    {
      "anonymous": false,
      "inputs": [
        {
          "indexed": true,
          "internalType": "address",
          "name": "account",
          "type": "address"
        }
      ],
      "name": "DistributorRemoved",
      "type": "event"
    },
    {
      "anonymous": false,
      "inputs": [
        {
          "indexed": true,
          "internalType": "address",
          "name": "account",
          "type": "address"
        }
      ],
      "name": "FarmerAdded",
      "type": "event"
    },
    {
      "anonymous": false,
      "inputs": [
        {
          "indexed": true,
          "internalType": "address",
          "name": "account",
          "type": "address"
        }
      ],
      "name": "FarmerRemoved",
      "type": "event"
    },
    {
      "anonymous": false,
      "inputs": [
        {
          "indexed": false,
          "internalType": "uint256",
          "name": "upc",
          "type": "uint256"
        }
      ],
      "name": "ForSale",
      "type": "event"
    },
    {
      "anonymous": false,
      "inputs": [
        {
          "indexed": false,
          "internalType": "uint256",
          "name": "upc",
          "type": "uint256"
        }
      ],
      "name": "Harvested",
      "type": "event"
    },
    {
      "anonymous": false,
      "inputs": [
        {
          "indexed": false,
          "internalType": "uint256",
          "name": "upc",
          "type": "uint256"
        }
      ],
      "name": "Packed",
      "type": "event"
    },
    {
      "anonymous": false,
      "inputs": [
        {
          "indexed": false,
          "internalType": "uint256",
          "name": "upc",
          "type": "uint256"
        }
      ],
      "name": "Processed",
      "type": "event"
    },
    {
      "anonymous": false,
      "inputs": [
        {
          "indexed": false,
          "internalType": "uint256",
          "name": "upc",
          "type": "uint256"
        }
      ],
      "name": "Purchased",
      "type": "event"
    },
    {
      "anonymous": false,
      "inputs": [
        {
          "indexed": false,
          "internalType": "uint256",
          "name": "upc",
          "type": "uint256"
        }
      ],
      "name": "Received",
      "type": "event"
    },
    {
      "anonymous": false,
      "inputs": [
        {
          "indexed": true,
          "internalType": "address",
          "name": "account",
          "type": "address"
        }
      ],
      "name": "RetailerAdded",
      "type": "event"
    },
    {
      "anonymous": false,
      "inputs": [
        {
          "indexed": true,
          "internalType": "address",
          "name": "account",
          "type": "address"
        }
      ],
      "name": "RetailerRemoved",
      "type": "event"
    },
    {
      "anonymous": false,
      "inputs": [
        {
          "indexed": false,
          "internalType": "uint256",
          "name": "upc",
          "type": "uint256"
        }
      ],
      "name": "Shipped",
      "type": "event"
    },
    {
      "anonymous": false,
      "inputs": [
        {
          "indexed": false,
          "internalType": "uint256",
          "name": "upc",
          "type": "uint256"
        }
      ],
      "name": "Sold",
      "type": "event"
    },
    {
      "inputs": [
        {
          "internalType": "address",
          "name": "account",
          "type": "address"
        }
      ],
      "name": "addConsumer",
      "outputs": [],
      "stateMutability": "nonpayable",
      "type": "function"
    },
    {
      "inputs": [
        {
          "internalType": "address",
          "name": "account",
          "type": "address"
        }
      ],
      "name": "addDistributor",
      "outputs": [],
      "stateMutability": "nonpayable",
      "type": "function"
    },
    {
      "inputs": [
        {
          "internalType": "address",
          "name": "account",
          "type": "address"
        }
      ],
      "name": "addFarmer",
      "outputs": [],
      "stateMutability": "nonpayable",
      "type": "function"
    },
    {
      "inputs": [
        {
          "internalType": "address",
          "name": "account",
          "type": "address"
        }
      ],
      "name": "addRetailer",
      "outputs": [],
      "stateMutability": "nonpayable",
      "type": "function"
    },
    {
      "inputs": [
        {
          "internalType": "address",
          "name": "account",
          "type": "address"
        }
      ],
      "name": "isConsumer",
      "outputs": [
        {
          "internalType": "bool",
          "name": "",
          "type": "bool"
        }
      ],
      "stateMutability": "view",
      "type": "function",
      "constant": true
    },
    {
      "inputs": [
        {
          "internalType": "address",
          "name": "account",
          "type": "address"
        }
      ],
      "name": "isDistributor",
      "outputs": [
        {
          "internalType": "bool",
          "name": "",
          "type": "bool"
        }
      ],
      "stateMutability": "view",
      "type": "function",
      "constant": true
    },
    {
      "inputs": [
        {
          "internalType": "address",
          "name": "account",
          "type": "address"
        }
      ],
      "name": "isFarmer",
      "outputs": [
        {
          "internalType": "bool",
          "name": "",
          "type": "bool"
        }
      ],
      "stateMutability": "view",
      "type": "function",
      "constant": true
    },
    {
      "inputs": [
        {
          "internalType": "address",
          "name": "account",
          "type": "address"
        }
      ],
      "name": "isRetailer",
      "outputs": [
        {
          "internalType": "bool",
          "name": "",
          "type": "bool"
        }
      ],
      "stateMutability": "view",
      "type": "function",
      "constant": true
    },
    {
      "inputs": [],
      "name": "renounceConsumer",
      "outputs": [],
      "stateMutability": "nonpayable",
      "type": "function"
    },
    {
      "inputs": [],
      "name": "renounceDistributor",
      "outputs": [],
      "stateMutability": "nonpayable",
      "type": "function"
    },
    {
      "inputs": [],
      "name": "renounceFarmer",
      "outputs": [],
      "stateMutability": "nonpayable",
      "type": "function"
    },
    {
      "inputs": [],
      "name": "renounceRetailer",
      "outputs": [],
      "stateMutability": "nonpayable",
      "type": "function"
    },
    {
      "inputs": [],
      "name": "kill",
      "outputs": [],
      "stateMutability": "nonpayable",
      "type": "function"
    },
    {
      "inputs": [
        {
          "internalType": "address",
          "name": "_originFarmerID",
          "type": "address"
        },
        {
          "internalType": "string",
          "name": "_originFarmName",
          "type": "string"
        },
        {
          "internalType": "string",
          "name": "_originFarmInformation",
          "type": "string"
        },
        {
          "internalType": "string",
          "name": "_originFarmLatitude",
          "type": "string"
        },
        {
          "internalType": "string",
          "name": "_originFarmLongitude",
          "type": "string"
        },
        {
          "internalType": "string",
          "name": "_productNotes",
          "type": "string"
        }
      ],
      "name": "register",
      "outputs": [
        {
          "components": [
            {
              "internalType": "uint256",
              "name": "sku",
              "type": "uint256"
            },
            {
              "internalType": "uint256",
              "name": "upc",
              "type": "uint256"
            },
            {
              "internalType": "address",
              "name": "ownerID",
              "type": "address"
            },
            {
              "internalType": "address",
              "name": "originFarmerID",
              "type": "address"
            },
            {
              "internalType": "string",
              "name": "originFarmName",
              "type": "string"
            },
            {
              "internalType": "string",
              "name": "originFarmInformation",
              "type": "string"
            },
            {
              "internalType": "string",
              "name": "originFarmLatitude",
              "type": "string"
            },
            {
              "internalType": "string",
              "name": "originFarmLongitude",
              "type": "string"
            },
            {
              "internalType": "uint256",
              "name": "productID",
              "type": "uint256"
            },
            {
              "internalType": "string",
              "name": "productNotes",
              "type": "string"
            },
            {
              "internalType": "uint256",
              "name": "productPrice",
              "type": "uint256"
            },
            {
              "internalType": "enum SupplyChain.State",
              "name": "itemState",
              "type": "uint8"
            },
            {
              "internalType": "address",
              "name": "distributorID",
              "type": "address"
            },
            {
              "internalType": "address",
              "name": "retailerID",
              "type": "address"
            },
            {
              "internalType": "address",
              "name": "consumerID",
              "type": "address"
            }
          ],
          "internalType": "struct SupplyChain.Item",
          "name": "itemReturn",
          "type": "tuple"
        }
      ],
      "stateMutability": "nonpayable",
      "type": "function"
    },
    {
      "inputs": [
        {
          "internalType": "uint256",
          "name": "_upc",
          "type": "uint256"
        }
      ],
      "name": "harvestItem",
      "outputs": [],
      "stateMutability": "nonpayable",
      "type": "function"
    },
    {
      "inputs": [
        {
          "internalType": "uint256",
          "name": "_upc",
          "type": "uint256"
        }
      ],
      "name": "processItem",
      "outputs": [],
      "stateMutability": "nonpayable",
      "type": "function"
    },
    {
      "inputs": [
        {
          "internalType": "uint256",
          "name": "_upc",
          "type": "uint256"
        }
      ],
      "name": "packItem",
      "outputs": [],
      "stateMutability": "nonpayable",
      "type": "function"
    },
    {
      "inputs": [
        {
          "internalType": "uint256",
          "name": "_upc",
          "type": "uint256"
        },
        {
          "internalType": "uint256",
          "name": "_price",
          "type": "uint256"
        }
      ],
      "name": "sellItem",
      "outputs": [],
      "stateMutability": "nonpayable",
      "type": "function"
    },
    {
      "inputs": [
        {
          "internalType": "uint256",
          "name": "_upc",
          "type": "uint256"
        }
      ],
      "name": "buyItem",
      "outputs": [],
      "stateMutability": "payable",
      "type": "function",
      "payable": true
    },
    {
      "inputs": [
        {
          "internalType": "uint256",
          "name": "_upc",
          "type": "uint256"
        }
      ],
      "name": "shipItem",
      "outputs": [],
      "stateMutability": "nonpayable",
      "type": "function"
    },
    {
      "inputs": [
        {
          "internalType": "uint256",
          "name": "_upc",
          "type": "uint256"
        }
      ],
      "name": "receiveItem",
      "outputs": [],
      "stateMutability": "nonpayable",
      "type": "function"
    },
    {
      "inputs": [
        {
          "internalType": "uint256",
          "name": "_upc",
          "type": "uint256"
        }
      ],
      "name": "purchaseItem",
      "outputs": [],
      "stateMutability": "nonpayable",
      "type": "function"
    },
    {
      "inputs": [
        {
          "internalType": "uint256",
          "name": "_upc",
          "type": "uint256"
        }
      ],
      "name": "fetchItemBufferOne",
      "outputs": [
        {
          "internalType": "uint256",
          "name": "itemSKU",
          "type": "uint256"
        },
        {
          "internalType": "uint256",
          "name": "itemUPC",
          "type": "uint256"
        },
        {
          "internalType": "address",
          "name": "ownerID",
          "type": "address"
        },
        {
          "internalType": "address",
          "name": "originFarmerID",
          "type": "address"
        },
        {
          "internalType": "string",
          "name": "originFarmName",
          "type": "string"
        },
        {
          "internalType": "string",
          "name": "originFarmInformation",
          "type": "string"
        },
        {
          "internalType": "string",
          "name": "originFarmLatitude",
          "type": "string"
        },
        {
          "internalType": "string",
          "name": "originFarmLongitude",
          "type": "string"
        }
      ],
      "stateMutability": "view",
      "type": "function",
      "constant": true
    },
    {
      "inputs": [
        {
          "internalType": "uint256",
          "name": "_upc",
          "type": "uint256"
        }
      ],
      "name": "fetchItemBufferTwo",
      "outputs": [
        {
          "internalType": "uint256",
          "name": "itemSKU",
          "type": "uint256"
        },
        {
          "internalType": "uint256",
          "name": "itemUPC",
          "type": "uint256"
        },
        {
          "internalType": "uint256",
          "name": "productID",
          "type": "uint256"
        },
        {
          "internalType": "string",
          "name": "productNotes",
          "type": "string"
        },
        {
          "internalType": "uint256",
          "name": "productPrice",
          "type": "uint256"
        },
        {
          "internalType": "uint256",
          "name": "itemState",
          "type": "uint256"
        },
        {
          "internalType": "address",
          "name": "distributorID",
          "type": "address"
        },
        {
          "internalType": "address",
          "name": "retailerID",
          "type": "address"
        },
        {
          "internalType": "address",
          "name": "consumerID",
          "type": "address"
        }
      ],
      "stateMutability": "view",
      "type": "function",
      "constant": true
    }
  ],
  "bytecode": "0x608060405262000015336200009f60201b60201c565b62000026336200010060201b60201c565b62000037336200016160201b60201c565b6200004833620001c260201b60201c565b33600460006101000a81548173ffffffffffffffffffffffffffffffffffffffff021916908373ffffffffffffffffffffffffffffffffffffffff160217905550600160068190555060016005819055506200036c565b620000ba8160006200022360201b6200288e1790919060201c565b8073ffffffffffffffffffffffffffffffffffffffff167f28b26e7a3d20aedbc5f8f2ebf7da671c0491723a2b78f47a097b0e46dee0714260405160405180910390a250565b6200011b8160016200022360201b6200288e1790919060201c565b8073ffffffffffffffffffffffffffffffffffffffff167f2e0ded4123377a3c2bc9a26f1717655a129e2f20752924d42e730ec89c83dbd060405160405180910390a250565b6200017c8160026200022360201b6200288e1790919060201c565b8073ffffffffffffffffffffffffffffffffffffffff167fddbf200aa634dc3fb81cfd68583dd1040d1c751d335e1d86b631bde3e977fea860405160405180910390a250565b620001dd8160036200022360201b6200288e1790919060201c565b8073ffffffffffffffffffffffffffffffffffffffff167f71ae26cad02663e3d92efd6ec56031a80d74a20c0ab4183faa8bf262261c9baa60405160405180910390a250565b600073ffffffffffffffffffffffffffffffffffffffff168173ffffffffffffffffffffffffffffffffffffffff1614156200025e57600080fd5b620002708282620002d960201b60201c565b156200027b57600080fd5b60018260000160008373ffffffffffffffffffffffffffffffffffffffff1673ffffffffffffffffffffffffffffffffffffffff16815260200190815260200160002060006101000a81548160ff0219169083151502179055505050565b60008073ffffffffffffffffffffffffffffffffffffffff168273ffffffffffffffffffffffffffffffffffffffff1614156200031557600080fd5b8260000160008373ffffffffffffffffffffffffffffffffffffffff1673ffffffffffffffffffffffffffffffffffffffff16815260200190815260200160002060009054906101000a900460ff16905092915050565b613c6b806200037c6000396000f3fe60806040526004361061014b5760003560e01c806380fc0ce4116100b6578063b94290691161006f578063b942906914610471578063d38ea5bf146104ae578063db0e6a2f146104d7578063e7fb74c7146104ee578063f30fc4801461050a578063f61c899a146105335761014b565b806380fc0ce414610351578063834ff739146103685780638ec4f505146103a55780638f0c86fa146103ce578063a26be9991461040b578063b40dd61d146104345761014b565b806361e6982d1161010857806361e6982d14610248578063644241db1461025f57806366225ff9146102765780637250e224146102bb57806377c45913146102e457806380c3f96d146103285761014b565b8063112940f9146101505780632d92356114610179578063333d6a43146101a257806341c0e1b5146101cb57806349dae766146101e25780635da09b881461020b575b600080fd5b34801561015c57600080fd5b5061017760048036038101906101729190612f7a565b61055c565b005b34801561018557600080fd5b506101a0600480360381019061019b91906130ed565b61057a565b005b3480156101ae57600080fd5b506101c960048036038101906101c491906130c0565b610741565b005b3480156101d757600080fd5b506101e06107cc565b005b3480156101ee57600080fd5b50610209600480360381019061020491906130c0565b61085f565b005b34801561021757600080fd5b50610232600480360381019061022d9190612f7a565b610a0a565b60405161023f9190613493565b60405180910390f35b34801561025457600080fd5b5061025d610a27565b005b34801561026b57600080fd5b50610274610a32565b005b34801561028257600080fd5b5061029d600480360381019061029891906130c0565b610a3d565b6040516102b2999897969594939291906136a5565b60405180910390f35b3480156102c757600080fd5b506102e260048036038101906102dd9190612f7a565b610fbf565b005b3480156102f057600080fd5b5061030b600480360381019061030691906130c0565b610fdd565b60405161031f98979695949392919061360b565b60405180910390f35b34801561033457600080fd5b5061034f600480360381019061034a9190612f7a565b61153b565b005b34801561035d57600080fd5b50610366611559565b005b34801561037457600080fd5b5061038f600480360381019061038a9190612f7a565b611564565b60405161039c9190613493565b60405180910390f35b3480156103b157600080fd5b506103cc60048036038101906103c79190612f7a565b611581565b005b3480156103da57600080fd5b506103f560048036038101906103f09190612f7a565b61159f565b6040516104029190613493565b60405180910390f35b34801561041757600080fd5b50610432600480360381019061042d91906130c0565b6115bc565b005b34801561044057600080fd5b5061045b60048036038101906104569190612fa7565b61176a565b60405161046891906135ce565b60405180910390f35b34801561047d57600080fd5b5061049860048036038101906104939190612f7a565b612018565b6040516104a59190613493565b60405180910390f35b3480156104ba57600080fd5b506104d560048036038101906104d091906130c0565b612035565b005b3480156104e357600080fd5b506104ec6121e4565b005b610508600480360381019061050391906130c0565b6121ef565b005b34801561051657600080fd5b50610531600480360381019061052c91906130c0565b612538565b005b34801561053f57600080fd5b5061055a600480360381019061055591906130c0565b6126e3565b005b61056533611564565b61056e57600080fd5b6105778161293a565b50565b816003600881111561058f5761058e6139d0565b5b60076000838152602001908152602001600020600b0160009054906101000a900460ff1660088111156105c5576105c46139d0565b5b14610605576040517f08c379a00000000000000000000000000000000000000000000000000000000081526004016105fc906135ae565b60405180910390fd5b6007600084815260200190815260200160002060030160009054906101000a900473ffffffffffffffffffffffffffffffffffffffff168073ffffffffffffffffffffffffffffffffffffffff163373ffffffffffffffffffffffffffffffffffffffff16146106aa576040517f08c379a00000000000000000000000000000000000000000000000000000000081526004016106a1906134ce565b60405180910390fd5b600460076000868152602001908152602001600020600b0160006101000a81548160ff021916908360088111156106e4576106e36139d0565b5b02179055508260076000868152602001908152602001600020600a01819055507fa96ae0fc3224ebd79eebfe54bd130cc9cb94416cddd1f2386115e00b725324688460405161073391906135f0565b60405180910390a150505050565b61074a33612018565b61075357600080fd5b600160076000838152602001908152602001600020600b0160006101000a81548160ff0219169083600881111561078d5761078c6139d0565b5b02179055507f8e55ccfc9778ff8eba1646d765cf1982537ce0f9257054a17b48aad745250183816040516107c191906135f0565b60405180910390a150565b600460009054906101000a900473ffffffffffffffffffffffffffffffffffffffff1673ffffffffffffffffffffffffffffffffffffffff163373ffffffffffffffffffffffffffffffffffffffff16141561085d57600460009054906101000a900473ffffffffffffffffffffffffffffffffffffffff1673ffffffffffffffffffffffffffffffffffffffff16ff5b565b8060016008811115610874576108736139d0565b5b60076000838152602001908152602001600020600b0160009054906101000a900460ff1660088111156108aa576108a96139d0565b5b146108ea576040517f08c379a00000000000000000000000000000000000000000000000000000000081526004016108e19061350e565b60405180910390fd5b6007600083815260200190815260200160002060030160009054906101000a900473ffffffffffffffffffffffffffffffffffffffff168073ffffffffffffffffffffffffffffffffffffffff163373ffffffffffffffffffffffffffffffffffffffff161461098f576040517f08c379a0000000000000000000000000000000000000000000000000000000008152600401610986906134ce565b60405180910390fd5b600260076000858152602001908152602001600020600b0160006101000a81548160ff021916908360088111156109c9576109c86139d0565b5b02179055507f5afe3b1bf87069693c075da5c22a98d63d1aef98a30dbbe538d0781a98b77ee5836040516109fd91906135f0565b60405180910390a1505050565b6000610a2082600361299490919063ffffffff16565b9050919050565b610a3033612a26565b565b610a3b33612a80565b565b60008060006060600080600080600080600760008c8152602001908152602001600020604051806101e001604052908160008201548152602001600182015481526020016002820160009054906101000a900473ffffffffffffffffffffffffffffffffffffffff1673ffffffffffffffffffffffffffffffffffffffff1673ffffffffffffffffffffffffffffffffffffffff1681526020016003820160009054906101000a900473ffffffffffffffffffffffffffffffffffffffff1673ffffffffffffffffffffffffffffffffffffffff1673ffffffffffffffffffffffffffffffffffffffff168152602001600482018054610b3c906138f5565b80601f0160208091040260200160405190810160405280929190818152602001828054610b68906138f5565b8015610bb55780601f10610b8a57610100808354040283529160200191610bb5565b820191906000526020600020905b815481529060010190602001808311610b9857829003601f168201915b50505050508152602001600582018054610bce906138f5565b80601f0160208091040260200160405190810160405280929190818152602001828054610bfa906138f5565b8015610c475780601f10610c1c57610100808354040283529160200191610c47565b820191906000526020600020905b815481529060010190602001808311610c2a57829003601f168201915b50505050508152602001600682018054610c60906138f5565b80601f0160208091040260200160405190810160405280929190818152602001828054610c8c906138f5565b8015610cd95780601f10610cae57610100808354040283529160200191610cd9565b820191906000526020600020905b815481529060010190602001808311610cbc57829003601f168201915b50505050508152602001600782018054610cf2906138f5565b80601f0160208091040260200160405190810160405280929190818152602001828054610d1e906138f5565b8015610d6b5780601f10610d4057610100808354040283529160200191610d6b565b820191906000526020600020905b815481529060010190602001808311610d4e57829003601f168201915b5050505050815260200160088201548152602001600982018054610d8e906138f5565b80601f0160208091040260200160405190810160405280929190818152602001828054610dba906138f5565b8015610e075780601f10610ddc57610100808354040283529160200191610e07565b820191906000526020600020905b815481529060010190602001808311610dea57829003601f168201915b50505050508152602001600a8201548152602001600b820160009054906101000a900460ff166008811115610e3f57610e3e6139d0565b5b6008811115610e5157610e506139d0565b5b8152602001600b820160019054906101000a900473ffffffffffffffffffffffffffffffffffffffff1673ffffffffffffffffffffffffffffffffffffffff1673ffffffffffffffffffffffffffffffffffffffff168152602001600c820160009054906101000a900473ffffffffffffffffffffffffffffffffffffffff1673ffffffffffffffffffffffffffffffffffffffff1673ffffffffffffffffffffffffffffffffffffffff168152602001600d820160009054906101000a900473ffffffffffffffffffffffffffffffffffffffff1673ffffffffffffffffffffffffffffffffffffffff1673ffffffffffffffffffffffffffffffffffffffff1681525050905080600001519950806020015198508061010001519750806101200151965080610140015195508061016001516008811115610f9757610f966139d0565b5b94508061018001519350806101a001519250806101c001519150509193959799909294969850565b610fc83361159f565b610fd157600080fd5b610fda81612ada565b50565b6000806000806060806060806000600760008b8152602001908152602001600020604051806101e001604052908160008201548152602001600182015481526020016002820160009054906101000a900473ffffffffffffffffffffffffffffffffffffffff1673ffffffffffffffffffffffffffffffffffffffff1673ffffffffffffffffffffffffffffffffffffffff1681526020016003820160009054906101000a900473ffffffffffffffffffffffffffffffffffffffff1673ffffffffffffffffffffffffffffffffffffffff1673ffffffffffffffffffffffffffffffffffffffff1681526020016004820180546110da906138f5565b80601f0160208091040260200160405190810160405280929190818152602001828054611106906138f5565b80156111535780601f1061112857610100808354040283529160200191611153565b820191906000526020600020905b81548152906001019060200180831161113657829003601f168201915b5050505050815260200160058201805461116c906138f5565b80601f0160208091040260200160405190810160405280929190818152602001828054611198906138f5565b80156111e55780601f106111ba576101008083540402835291602001916111e5565b820191906000526020600020905b8154815290600101906020018083116111c857829003601f168201915b505050505081526020016006820180546111fe906138f5565b80601f016020809104026020016040519081016040528092919081815260200182805461122a906138f5565b80156112775780601f1061124c57610100808354040283529160200191611277565b820191906000526020600020905b81548152906001019060200180831161125a57829003601f168201915b50505050508152602001600782018054611290906138f5565b80601f01602080910402602001604051908101604052809291908181526020018280546112bc906138f5565b80156113095780601f106112de57610100808354040283529160200191611309565b820191906000526020600020905b8154815290600101906020018083116112ec57829003601f168201915b505050505081526020016008820154815260200160098201805461132c906138f5565b80601f0160208091040260200160405190810160405280929190818152602001828054611358906138f5565b80156113a55780601f1061137a576101008083540402835291602001916113a5565b820191906000526020600020905b81548152906001019060200180831161138857829003601f168201915b50505050508152602001600a8201548152602001600b820160009054906101000a900460ff1660088111156113dd576113dc6139d0565b5b60088111156113ef576113ee6139d0565b5b8152602001600b820160019054906101000a900473ffffffffffffffffffffffffffffffffffffffff1673ffffffffffffffffffffffffffffffffffffffff1673ffffffffffffffffffffffffffffffffffffffff168152602001600c820160009054906101000a900473ffffffffffffffffffffffffffffffffffffffff1673ffffffffffffffffffffffffffffffffffffffff1673ffffffffffffffffffffffffffffffffffffffff168152602001600d820160009054906101000a900473ffffffffffffffffffffffffffffffffffffffff1673ffffffffffffffffffffffffffffffffffffffff1673ffffffffffffffffffffffffffffffffffffffff1681525050905080600001519850806020015197508060400151965080606001519550806080015194508060a0015193508060c0015192508060e00151915050919395975091939597565b61154433612018565b61154d57600080fd5b61155681612b34565b50565b61156233612b8e565b565b600061157a82600061299490919063ffffffff16565b9050919050565b61158a33610a0a565b61159357600080fd5b61159c81612be8565b50565b60006115b582600261299490919063ffffffff16565b9050919050565b80600660088111156115d1576115d06139d0565b5b60076000838152602001908152602001600020600b0160009054906101000a900460ff166008811115611607576116066139d0565b5b14611647576040517f08c379a000000000000000000000000000000000000000000000000000000000815260040161163e9061358e565b60405180910390fd5b336007600084815260200190815260200160002060020160006101000a81548173ffffffffffffffffffffffffffffffffffffffff021916908373ffffffffffffffffffffffffffffffffffffffff1602179055503360076000848152602001908152602001600020600c0160006101000a81548173ffffffffffffffffffffffffffffffffffffffff021916908373ffffffffffffffffffffffffffffffffffffffff1602179055506007806000848152602001908152602001600020600b0160006101000a81548160ff0219169083600881111561172a576117296139d0565b5b02179055507fa8142743f8f70a4c26f3691cf4ed59718381fb2f18070ec52be1f1022d8555578260405161175e91906135f0565b60405180910390a15050565b611772612d47565b6000604051806101e00160405280600654815260200160055481526020018973ffffffffffffffffffffffffffffffffffffffff1681526020018973ffffffffffffffffffffffffffffffffffffffff1681526020018881526020018781526020018681526020018581526020016005546006546117f091906137bc565b81526020018481526020016000815260200160006008811115611816576118156139d0565b5b8152602001600073ffffffffffffffffffffffffffffffffffffffff168152602001600073ffffffffffffffffffffffffffffffffffffffff168152602001600073ffffffffffffffffffffffffffffffffffffffff16815250905061187b88612b34565b80600760006005548152602001908152602001600020600082015181600001556020820151816001015560408201518160020160006101000a81548173ffffffffffffffffffffffffffffffffffffffff021916908373ffffffffffffffffffffffffffffffffffffffff16021790555060608201518160030160006101000a81548173ffffffffffffffffffffffffffffffffffffffff021916908373ffffffffffffffffffffffffffffffffffffffff160217905550608082015181600401908051906020019061194f929190612e3d565b5060a082015181600501908051906020019061196c929190612e3d565b5060c0820151816006019080519060200190611989929190612e3d565b5060e08201518160070190805190602001906119a6929190612e3d565b5061010082015181600801556101208201518160090190805190602001906119cf929190612e3d565b5061014082015181600a015561016082015181600b0160006101000a81548160ff02191690836008811115611a0757611a066139d0565b5b021790555061018082015181600b0160016101000a81548173ffffffffffffffffffffffffffffffffffffffff021916908373ffffffffffffffffffffffffffffffffffffffff1602179055506101a082015181600c0160006101000a81548173ffffffffffffffffffffffffffffffffffffffff021916908373ffffffffffffffffffffffffffffffffffffffff1602179055506101c082015181600d0160006101000a81548173ffffffffffffffffffffffffffffffffffffffff021916908373ffffffffffffffffffffffffffffffffffffffff160217905550905050600760006005548152602001908152602001600020604051806101e001604052908160008201548152602001600182015481526020016002820160009054906101000a900473ffffffffffffffffffffffffffffffffffffffff1673ffffffffffffffffffffffffffffffffffffffff1673ffffffffffffffffffffffffffffffffffffffff1681526020016003820160009054906101000a900473ffffffffffffffffffffffffffffffffffffffff1673ffffffffffffffffffffffffffffffffffffffff1673ffffffffffffffffffffffffffffffffffffffff168152602001600482018054611bd8906138f5565b80601f0160208091040260200160405190810160405280929190818152602001828054611c04906138f5565b8015611c515780601f10611c2657610100808354040283529160200191611c51565b820191906000526020600020905b815481529060010190602001808311611c3457829003601f168201915b50505050508152602001600582018054611c6a906138f5565b80601f0160208091040260200160405190810160405280929190818152602001828054611c96906138f5565b8015611ce35780601f10611cb857610100808354040283529160200191611ce3565b820191906000526020600020905b815481529060010190602001808311611cc657829003601f168201915b50505050508152602001600682018054611cfc906138f5565b80601f0160208091040260200160405190810160405280929190818152602001828054611d28906138f5565b8015611d755780601f10611d4a57610100808354040283529160200191611d75565b820191906000526020600020905b815481529060010190602001808311611d5857829003601f168201915b50505050508152602001600782018054611d8e906138f5565b80601f0160208091040260200160405190810160405280929190818152602001828054611dba906138f5565b8015611e075780601f10611ddc57610100808354040283529160200191611e07565b820191906000526020600020905b815481529060010190602001808311611dea57829003601f168201915b5050505050815260200160088201548152602001600982018054611e2a906138f5565b80601f0160208091040260200160405190810160405280929190818152602001828054611e56906138f5565b8015611ea35780601f10611e7857610100808354040283529160200191611ea3565b820191906000526020600020905b815481529060010190602001808311611e8657829003601f168201915b50505050508152602001600a8201548152602001600b820160009054906101000a900460ff166008811115611edb57611eda6139d0565b5b6008811115611eed57611eec6139d0565b5b8152602001600b820160019054906101000a900473ffffffffffffffffffffffffffffffffffffffff1673ffffffffffffffffffffffffffffffffffffffff1673ffffffffffffffffffffffffffffffffffffffff168152602001600c820160009054906101000a900473ffffffffffffffffffffffffffffffffffffffff1673ffffffffffffffffffffffffffffffffffffffff1673ffffffffffffffffffffffffffffffffffffffff168152602001600d820160009054906101000a900473ffffffffffffffffffffffffffffffffffffffff1673ffffffffffffffffffffffffffffffffffffffff1673ffffffffffffffffffffffffffffffffffffffff168152505091506006600081548092919061200890613958565b9190505550509695505050505050565b600061202e82600161299490919063ffffffff16565b9050919050565b806007600881111561204a576120496139d0565b5b60076000838152602001908152602001600020600b0160009054906101000a900460ff1660088111156120805761207f6139d0565b5b146120c0576040517f08c379a00000000000000000000000000000000000000000000000000000000081526004016120b79061352e565b60405180910390fd5b336007600084815260200190815260200160002060020160006101000a81548173ffffffffffffffffffffffffffffffffffffffff021916908373ffffffffffffffffffffffffffffffffffffffff1602179055503360076000848152602001908152602001600020600d0160006101000a81548173ffffffffffffffffffffffffffffffffffffffff021916908373ffffffffffffffffffffffffffffffffffffffff160217905550600860076000848152602001908152602001600020600b0160006101000a81548160ff021916908360088111156121a4576121a36139d0565b5b02179055507f653d56639fee6b566a5c804764e9689de38645f0b733df89a36a1b7b42173dd8826040516121d891906135f0565b60405180910390a15050565b6121ed33612c42565b565b8060046008811115612204576122036139d0565b5b60076000838152602001908152602001600020600b0160009054906101000a900460ff16600881111561223a576122396139d0565b5b1461227a576040517f08c379a00000000000000000000000000000000000000000000000000000000081526004016122719061356e565b60405180910390fd5b60076000838152602001908152602001600020600a0154803410156122d4576040517f08c379a00000000000000000000000000000000000000000000000000000000081526004016122cb906134ae565b60405180910390fd5b82336007600086815260200190815260200160002060020160006101000a81548173ffffffffffffffffffffffffffffffffffffffff021916908373ffffffffffffffffffffffffffffffffffffffff1602179055503360076000868152602001908152602001600020600b0160016101000a81548173ffffffffffffffffffffffffffffffffffffffff021916908373ffffffffffffffffffffffffffffffffffffffff160217905550600560076000868152602001908152602001600020600b0160006101000a81548160ff021916908360088111156123b9576123b86139d0565b5b02179055506007600085815260200190815260200160002060030160009054906101000a900473ffffffffffffffffffffffffffffffffffffffff1673ffffffffffffffffffffffffffffffffffffffff166108fc60076000878152602001908152602001600020600a01549081150290604051600060405180830381858888f19350505050158015612450573d6000803e3d6000fd5b507f92f64ca637d023f354075a4be751b169c1a8a9ccb6d33cdd0cb35205439957278460405161248091906135f0565b60405180910390a1600060076000838152602001908152602001600020600a01549050600081346124b19190613812565b905060076000848152602001908152602001600020600d0160009054906101000a900473ffffffffffffffffffffffffffffffffffffffff1673ffffffffffffffffffffffffffffffffffffffff166108fc829081150290604051600060405180830381858888f1935050505015801561252f573d6000803e3d6000fd5b50505050505050565b806002600881111561254d5761254c6139d0565b5b60076000838152602001908152602001600020600b0160009054906101000a900460ff166008811115612583576125826139d0565b5b146125c3576040517f08c379a00000000000000000000000000000000000000000000000000000000081526004016125ba906134ee565b60405180910390fd5b6007600083815260200190815260200160002060030160009054906101000a900473ffffffffffffffffffffffffffffffffffffffff168073ffffffffffffffffffffffffffffffffffffffff163373ffffffffffffffffffffffffffffffffffffffff1614612668576040517f08c379a000000000000000000000000000000000000000000000000000000000815260040161265f906134ce565b60405180910390fd5b600360076000858152602001908152602001600020600b0160006101000a81548160ff021916908360088111156126a2576126a16139d0565b5b02179055507f9b3b66e2380b690bae22c73ef1428fb0c91e72fe14a4b6defa13035214187aff836040516126d691906135f0565b60405180910390a1505050565b80600560088111156126f8576126f76139d0565b5b60076000838152602001908152602001600020600b0160009054906101000a900460ff16600881111561272e5761272d6139d0565b5b1461276e576040517f08c379a00000000000000000000000000000000000000000000000000000000081526004016127659061354e565b60405180910390fd5b60076000838152602001908152602001600020600b0160019054906101000a900473ffffffffffffffffffffffffffffffffffffffff168073ffffffffffffffffffffffffffffffffffffffff163373ffffffffffffffffffffffffffffffffffffffff1614612813576040517f08c379a000000000000000000000000000000000000000000000000000000000815260040161280a906134ce565b60405180910390fd5b600660076000858152602001908152602001600020600b0160006101000a81548160ff0219169083600881111561284d5761284c6139d0565b5b02179055507ff00b9a5725b80c54016f42114f6ed7792d22eecb116011c4afac29c57bef6c958360405161288191906135f0565b60405180910390a1505050565b600073ffffffffffffffffffffffffffffffffffffffff168173ffffffffffffffffffffffffffffffffffffffff1614156128c857600080fd5b6128d28282612994565b156128dc57600080fd5b60018260000160008373ffffffffffffffffffffffffffffffffffffffff1673ffffffffffffffffffffffffffffffffffffffff16815260200190815260200160002060006101000a81548160ff0219169083151502179055505050565b61294e81600061288e90919063ffffffff16565b8073ffffffffffffffffffffffffffffffffffffffff167f28b26e7a3d20aedbc5f8f2ebf7da671c0491723a2b78f47a097b0e46dee0714260405160405180910390a250565b60008073ffffffffffffffffffffffffffffffffffffffff168273ffffffffffffffffffffffffffffffffffffffff1614156129cf57600080fd5b8260000160008373ffffffffffffffffffffffffffffffffffffffff1673ffffffffffffffffffffffffffffffffffffffff16815260200190815260200160002060009054906101000a900460ff16905092915050565b612a3a816000612c9c90919063ffffffff16565b8073ffffffffffffffffffffffffffffffffffffffff167fe3f5ed5f263f1f01764a96edfc7d025f511ec5f7d180e8816908b78bcf74f09860405160405180910390a250565b612a94816002612c9c90919063ffffffff16565b8073ffffffffffffffffffffffffffffffffffffffff167f126174f6cf49c81cdb4a9214c6b8f037bef55b4ec31e4fc776cea2a1c8a88d5960405160405180910390a250565b612aee81600261288e90919063ffffffff16565b8073ffffffffffffffffffffffffffffffffffffffff167fddbf200aa634dc3fb81cfd68583dd1040d1c751d335e1d86b631bde3e977fea860405160405180910390a250565b612b4881600161288e90919063ffffffff16565b8073ffffffffffffffffffffffffffffffffffffffff167f2e0ded4123377a3c2bc9a26f1717655a129e2f20752924d42e730ec89c83dbd060405160405180910390a250565b612ba2816001612c9c90919063ffffffff16565b8073ffffffffffffffffffffffffffffffffffffffff167fa5e0f060af304ab17dd418c7927e3da3ae7868189bf387aee09ab179ccc572f260405160405180910390a250565b612bfc81600361288e90919063ffffffff16565b8073ffffffffffffffffffffffffffffffffffffffff167f71ae26cad02663e3d92efd6ec56031a80d74a20c0ab4183faa8bf262261c9baa60405160405180910390a250565b612c56816003612c9c90919063ffffffff16565b8073ffffffffffffffffffffffffffffffffffffffff167fdb7176e79cffef81cb01767dd0447a0b24bb72ca9778d4b245581086b2a7e6db60405160405180910390a250565b600073ffffffffffffffffffffffffffffffffffffffff168173ffffffffffffffffffffffffffffffffffffffff161415612cd657600080fd5b612ce08282612994565b612ce957600080fd5b60008260000160008373ffffffffffffffffffffffffffffffffffffffff1673ffffffffffffffffffffffffffffffffffffffff16815260200190815260200160002060006101000a81548160ff0219169083151502179055505050565b604051806101e001604052806000815260200160008152602001600073ffffffffffffffffffffffffffffffffffffffff168152602001600073ffffffffffffffffffffffffffffffffffffffff1681526020016060815260200160608152602001606081526020016060815260200160008152602001606081526020016000815260200160006008811115612de057612ddf6139d0565b5b8152602001600073ffffffffffffffffffffffffffffffffffffffff168152602001600073ffffffffffffffffffffffffffffffffffffffff168152602001600073ffffffffffffffffffffffffffffffffffffffff1681525090565b828054612e49906138f5565b90600052602060002090601f016020900481019282612e6b5760008555612eb2565b82601f10612e8457805160ff1916838001178555612eb2565b82800160010185558215612eb2579182015b82811115612eb1578251825591602001919060010190612e96565b5b509050612ebf9190612ec3565b5090565b5b80821115612edc576000816000905550600101612ec4565b5090565b6000612ef3612eee8461375e565b613739565b905082815260208101848484011115612f0f57612f0e613a62565b5b612f1a8482856138b3565b509392505050565b600081359050612f3181613c07565b92915050565b600082601f830112612f4c57612f4b613a5d565b5b8135612f5c848260208601612ee0565b91505092915050565b600081359050612f7481613c1e565b92915050565b600060208284031215612f9057612f8f613a6c565b5b6000612f9e84828501612f22565b91505092915050565b60008060008060008060c08789031215612fc457612fc3613a6c565b5b6000612fd289828a01612f22565b965050602087013567ffffffffffffffff811115612ff357612ff2613a67565b5b612fff89828a01612f37565b955050604087013567ffffffffffffffff8111156130205761301f613a67565b5b61302c89828a01612f37565b945050606087013567ffffffffffffffff81111561304d5761304c613a67565b5b61305989828a01612f37565b935050608087013567ffffffffffffffff81111561307a57613079613a67565b5b61308689828a01612f37565b92505060a087013567ffffffffffffffff8111156130a7576130a6613a67565b5b6130b389828a01612f37565b9150509295509295509295565b6000602082840312156130d6576130d5613a6c565b5b60006130e484828501612f65565b91505092915050565b6000806040838503121561310457613103613a6c565b5b600061311285828601612f65565b925050602061312385828601612f65565b9150509250929050565b61313681613846565b82525050565b61314581613846565b82525050565b61315481613858565b82525050565b613163816138a1565b82525050565b60006131748261378f565b61317e818561379a565b935061318e8185602086016138c2565b61319781613a71565b840191505092915050565b60006131ad8261378f565b6131b781856137ab565b93506131c78185602086016138c2565b6131d081613a71565b840191505092915050565b60006131e8601a836137ab565b91506131f382613a82565b602082019050919050565b600061320b601b836137ab565b915061321682613aab565b602082019050919050565b600061322e6018836137ab565b915061323982613ad4565b602082019050919050565b60006132516018836137ab565b915061325c82613afd565b602082019050919050565b60006132746017836137ab565b915061327f82613b26565b602082019050919050565b60006132976013836137ab565b91506132a282613b4f565b602082019050919050565b60006132ba6016836137ab565b91506132c582613b78565b602082019050919050565b60006132dd6016836137ab565b91506132e882613ba1565b602082019050919050565b60006133006015836137ab565b915061330b82613bca565b602082019050919050565b60006101e08301600083015161332f6000860182613475565b5060208301516133426020860182613475565b506040830151613355604086018261312d565b506060830151613368606086018261312d565b50608083015184820360808601526133808282613169565b91505060a083015184820360a086015261339a8282613169565b91505060c083015184820360c08601526133b48282613169565b91505060e083015184820360e08601526133ce8282613169565b9150506101008301516133e5610100860182613475565b506101208301518482036101208601526133ff8282613169565b915050610140830151613416610140860182613475565b5061016083015161342b61016086018261315a565b5061018083015161344061018086018261312d565b506101a08301516134556101a086018261312d565b506101c083015161346a6101c086018261312d565b508091505092915050565b61347e81613897565b82525050565b61348d81613897565b82525050565b60006020820190506134a8600083018461314b565b92915050565b600060208201905081810360008301526134c7816131db565b9050919050565b600060208201905081810360008301526134e7816131fe565b9050919050565b6000602082019050818103600083015261350781613221565b9050919050565b6000602082019050818103600083015261352781613244565b9050919050565b6000602082019050818103600083015261354781613267565b9050919050565b600060208201905081810360008301526135678161328a565b9050919050565b60006020820190508181036000830152613587816132ad565b9050919050565b600060208201905081810360008301526135a7816132d0565b9050919050565b600060208201905081810360008301526135c7816132f3565b9050919050565b600060208201905081810360008301526135e88184613316565b905092915050565b60006020820190506136056000830184613484565b92915050565b600061010082019050613621600083018b613484565b61362e602083018a613484565b61363b604083018961313c565b613648606083018861313c565b818103608083015261365a81876131a2565b905081810360a083015261366e81866131a2565b905081810360c083015261368281856131a2565b905081810360e083015261369681846131a2565b90509998505050505050505050565b6000610120820190506136bb600083018c613484565b6136c8602083018b613484565b6136d5604083018a613484565b81810360608301526136e781896131a2565b90506136f66080830188613484565b61370360a0830187613484565b61371060c083018661313c565b61371d60e083018561313c565b61372b61010083018461313c565b9a9950505050505050505050565b6000613743613754565b905061374f8282613927565b919050565b6000604051905090565b600067ffffffffffffffff82111561377957613778613a2e565b5b61378282613a71565b9050602081019050919050565b600081519050919050565b600082825260208201905092915050565b600082825260208201905092915050565b60006137c782613897565b91506137d283613897565b9250827fffffffffffffffffffffffffffffffffffffffffffffffffffffffffffffffff03821115613807576138066139a1565b5b828201905092915050565b600061381d82613897565b915061382883613897565b92508282101561383b5761383a6139a1565b5b828203905092915050565b600061385182613877565b9050919050565b60008115159050919050565b600081905061387282613bf3565b919050565b600073ffffffffffffffffffffffffffffffffffffffff82169050919050565b6000819050919050565b60006138ac82613864565b9050919050565b82818337600083830152505050565b60005b838110156138e05780820151818401526020810190506138c5565b838111156138ef576000848401525b50505050565b6000600282049050600182168061390d57607f821691505b60208210811415613921576139206139ff565b5b50919050565b61393082613a71565b810181811067ffffffffffffffff8211171561394f5761394e613a2e565b5b80604052505050565b600061396382613897565b91507fffffffffffffffffffffffffffffffffffffffffffffffffffffffffffffffff821415613996576139956139a1565b5b600182019050919050565b7f4e487b7100000000000000000000000000000000000000000000000000000000600052601160045260246000fd5b7f4e487b7100000000000000000000000000000000000000000000000000000000600052602160045260246000fd5b7f4e487b7100000000000000000000000000000000000000000000000000000000600052602260045260246000fd5b7f4e487b7100000000000000000000000000000000000000000000000000000000600052604160045260246000fd5b600080fd5b600080fd5b600080fd5b600080fd5b6000601f19601f8301169050919050565b7f6d6f646966696572207061696420656e6f756768206572726f72000000000000600082015250565b7f6d6f6469666965722076657269667943616c6c6572206572726f720000000000600082015250565b7f6d6f6469666965722070726f636573736564206572726f720000000000000000600082015250565b7f6d6f64696669657220686172766573746564206572726f720000000000000000600082015250565b7f6d6f646966696572207265636569766564206572726f72000000000000000000600082015250565b7f6d6f64696669657220736f6c64206572726f7200000000000000000000000000600082015250565b7f6d6f64696669657220666f7273616c65206572726f7200000000000000000000600082015250565b7f6d6f6469666965722073686970706564206572726f7200000000000000000000600082015250565b7f6d6f646966696572207061636b6564206572726f720000000000000000000000600082015250565b60098110613c0457613c036139d0565b5b50565b613c1081613846565b8114613c1b57600080fd5b50565b613c2781613897565b8114613c3257600080fd5b5056fea2646970667358221220297133263c0d3a736ae9d2e6c510048d4528036da5eadb15111718d13beedac064736f6c63430008060033",
  "immutableReferences": {},
  "source": "// SPDX-License-Identifier: MIT\npragma solidity >=0.8.6;\n\n// Define a contract 'Supplychain'\nimport \"./../coffeeaccesscontrol/ConsumerRole.sol\";\nimport \"./../coffeeaccesscontrol/DistributorRole.sol\";\nimport \"./../coffeeaccesscontrol/FarmerRole.sol\";\nimport \"./../coffeeaccesscontrol/RetailerRole.sol\";\n\ncontract SupplyChain is ConsumerRole, FarmerRole, DistributorRole, RetailerRole {\n\n  // Define 'owner'\n  address owner;\n\n  // Define a variable called 'upc' for Universal Product Code (UPC)\n  uint  upc;\n\n  // Define a variable called 'sku' for Stock Keeping Unit (SKU)\n  uint  sku;\n\n  // Define a public mapping 'items' that maps the UPC to an Item.\n  mapping (uint => Item) items;\n\n  // Define a public mapping 'itemsHistory' that maps the UPC to an array of TxHash, \n  // that track its journey through the supply chain -- to be sent from DApp.\n  mapping (uint => string[]) itemsHistory;\n  \n  // Define enum 'State' with the following values:\n  enum State \n  { \n    Registered, // 0\n    Harvested,  // 0\n    Processed,  // 1\n    Packed,     // 2\n    ForSale,    // 3\n    Sold,       // 4\n    Shipped,    // 5\n    Received,   // 6\n    Purchased   // 7\n    }\n\n  State constant defaultState = State.Registered;\n\n  // Define a struct 'Item' with the following fields:\n  struct Item {\n    uint    sku;  // Stock Keeping Unit (SKU)\n    uint    upc; // Universal Product Code (UPC), generated by the Farmer, goes on the package, can be verified by the Consumer\n    address ownerID;  // Metamask-Ethereum address of the current owner as the product moves through 8 stages\n    address originFarmerID; // Metamask-Ethereum address of the Farmer\n    string  originFarmName; // Farmer Name\n    string  originFarmInformation;  // Farmer Information\n    string  originFarmLatitude; // Farm Latitude\n    string  originFarmLongitude;  // Farm Longitude\n    uint    productID;  // Product ID potentially a combination of upc + sku\n    string  productNotes; // Product Notes\n    uint    productPrice; // Product Price\n    State   itemState;  // Product State as represented in the enum above\n    address distributorID;  // Metamask-Ethereum address of the Distributor\n    address retailerID; // Metamask-Ethereum address of the Retailer\n    address consumerID; // Metamask-Ethereum address of the Consumer\n  }\n\n  // Define 8 events with the same 8 state values and accept 'upc' as input argument\n  event Harvested(uint upc);\n  event Processed(uint upc);\n  event Packed(uint upc);\n  event ForSale(uint upc);\n  event Sold(uint upc);\n  event Shipped(uint upc);\n  event Received(uint upc);\n  event Purchased(uint upc);\n\n  // Define a modifer that checks to see if msg.sender == owner of the contract\n  modifier onlyOwner() {\n    require(msg.sender == owner, \"modifier only owner error\");\n    _;\n  }\n\n  // Define a modifer that verifies the Caller\n  modifier verifyCaller (address _address) {\n    require(msg.sender == _address, \"modifier verifyCaller error\"); \n    _;\n  }\n\n  // Define a modifier that checks if the paid amount is sufficient to cover the price\n  modifier paidEnough(uint _price) { \n    require(msg.value >= _price, \"modifier paid enough error\"); \n    _;\n  }\n  \n  // Define a modifier that checks the price and refunds the remaining balance\n  modifier checkValue(uint _upc) {\n    _;\n    uint _price = items[_upc].productPrice;\n    uint amountToReturn = msg.value - _price;\n    payable(items[_upc].consumerID).transfer(amountToReturn);\n  }\n\n  // Define a modifier that checks if an item.state of a upc is Harvested\n  modifier harvested(uint _upc) {\n    require(items[_upc].itemState == State.Harvested, \"modifier harvested error\");\n    _;\n  }\n\n  // Define a modifier that checks if an item.state of a upc is Processed\n  modifier processed(uint _upc) {\n    require(items[_upc].itemState == State.Processed, \"modifier processed error\");\n    _;\n  }\n  \n  // Define a modifier that checks if an item.state of a upc is Packed\n  modifier packed(uint _upc) {\n  require(items[_upc].itemState == State.Packed, \"modifier packed error\");\n    _;\n  }\n\n  // Define a modifier that checks if an item.state of a upc is ForSale\n  modifier forSale(uint _upc) {\n    require(items[_upc].itemState == State.ForSale, \"modifier forsale error\");\n    _;\n  }\n\n  // Define a modifier that checks if an item.state of a upc is Sold\n  modifier sold(uint _upc) {\n    require(items[_upc].itemState == State.Sold, \"modifier sold error\");\n    _;\n  }\n  \n  // Define a modifier that checks if an item.state of a upc is Shipped\n  modifier shipped(uint _upc) {\n    require(items[_upc].itemState == State.Shipped, \"modifier shipped error\");\n    _;\n  }\n\n  // Define a modifier that checks if an item.state of a upc is Received\n  modifier received(uint _upc) {\n    require(items[_upc].itemState == State.Received, \"modifier received error\");\n    _;\n  }\n\n  // Define a modifier that checks if an item.state of a upc is Purchased\n  modifier purchased(uint _upc) {\n    require(items[_upc].itemState == State.Purchased, \"modifier purchased error\");\n    _;\n  }\n\n  // In the constructor set 'owner' to the address that instantiated the contract\n  // and set 'sku' to 1\n  // and set 'upc' to 1\n  constructor()  payable {\n    owner = msg.sender;\n    sku = 1;\n    upc = 1;\n  }\n\n  // Define a function 'kill' if required\n  function kill() public {\n    if (msg.sender == owner) {\n      selfdestruct(payable(owner));\n    }\n  }\n\n  function register(\n    address _originFarmerID, \n    string memory _originFarmName, \n    string memory _originFarmInformation, \n    string memory _originFarmLatitude, \n    string memory _originFarmLongitude, \n    string memory _productNotes ) public  returns (Item memory itemReturn){\n \n\n  Item memory item = Item({\n        sku: sku,\n        upc: upc,\n        ownerID: _originFarmerID,\n        originFarmerID: _originFarmerID,\n        originFarmName: _originFarmName,\n        originFarmInformation: _originFarmInformation,\n        originFarmLatitude: _originFarmLatitude,\n        originFarmLongitude: _originFarmLongitude,\n        productID: sku+upc,\n        productNotes: _productNotes,\n        productPrice: 0,\n        itemState: defaultState,\n        distributorID: address(0),\n        retailerID:  address(0),\n        consumerID:  address(0)\n    });\n     //emit Harvested(upc);\n     FarmerRole._addFarmer(_originFarmerID);\n     //FarmerRole._removeFarmer(msg.sender);\n    items[upc] = item;\n    itemReturn = items[upc];\n    sku++;\n  }\n\n  // Define a function 'harvestItem' that allows a farmer to mark an item 'Harvested'\n /* function harvestItem(uint _upc, address _originFarmerID, string memory _originFarmName, string memory _originFarmInformation, string memory _originFarmLatitude, \n                            string memory _originFarmLongitude, string memory _productNotes) public onlyFarmer*/\n  function harvestItem(uint _upc) public onlyFarmer\n  {\n     items[_upc].itemState = State.Harvested;\n    // Add the new item as part of Harvest\n     emit Harvested(_upc);\n  }\n\n  // Define a function 'processtItem' that allows a farmer to mark an item 'Processed'\n   // Call modifier to check if upc has passed previous supply chain stage\n  // Call modifier to verify caller of this function\n  function processItem(uint _upc) public harvested(_upc) verifyCaller(items[_upc].originFarmerID)\n  {\n    // Update the appropriate fields\n    items[_upc].itemState = State.Processed;\n    // Emit the appropriate event\n    emit Processed(_upc);\n    \n  }\n\n  // Define a function 'packItem' that allows a farmer to mark an item 'Packed'\n  // Call modifier to check if upc has passed previous supply chain stage\n  // Call modifier to verify caller of this function\n  function packItem(uint _upc) public processed(_upc) verifyCaller(items[_upc].originFarmerID)\n  {\n    // Update the appropriate fields\n    items[_upc].itemState = State.Packed;\n    // Emit the appropriate event\n    emit Packed(_upc);\n  }\n\n  // Define a function 'sellItem' that allows a farmer to mark an item 'ForSale'\n  // Call modifier to check if upc has passed previous supply chain stage\n  // Call modifier to verify caller of this function\n  function sellItem(uint _upc, uint _price) public  packed(_upc) verifyCaller(items[_upc].originFarmerID)\n  {\n    // Update the appropriate fields\n     items[_upc].itemState = State.ForSale;\n     items[_upc].productPrice = _price;\n    // Emit the appropriate event\n    emit ForSale(_upc);\n  }\n\n  // Define a function 'buyItem' that allows the disributor to mark an item 'Sold'\n  // Use the above defined modifiers to check if the item is available for sale, if the buyer has paid enough, \n  // and any excess ether sent is refunded back to the buyer\n  // Call modifier to check if upc has passed previous supply chain stage\n  // Call modifer to check if buyer has paid enough\n  // Call modifer to send any excess ether back to buyer\n  function buyItem(uint _upc) public payable forSale(_upc) paidEnough(items[_upc].productPrice) checkValue(_upc)\n    {\n    // Update the appropriate fields - ownerID, distributorID, itemState\n    items[_upc].ownerID = msg.sender;\n    items[_upc].distributorID = msg.sender;\n    items[_upc].itemState = State.Sold;\n    // Transfer money to farmer\n     payable(items[_upc].originFarmerID).transfer(items[_upc].productPrice);\n    // emit the appropriate event\n    emit Sold(_upc);\n  }\n\n  // Define a function 'shipItem' that allows the distributor to mark an item 'Shipped'\n  // Use the above modifers to check if the item is sold\n  // Call modifier to check if upc has passed previous supply chain stage\n    // Call modifier to verify caller of this function\n  function shipItem(uint _upc) public sold(_upc) verifyCaller(items[_upc].distributorID)\n    {\n    // Update the appropriate fields\n    items[_upc].itemState = State.Shipped;\n    // Emit the appropriate event\n    emit Shipped(_upc);\n  }\n\n  // Define a function 'receiveItem' that allows the retailer to mark an item 'Received'\n  // Use the above modifiers to check if the item is shipped\n   // Call modifier to check if upc has passed previous supply chain stage\n    // Access Control List enforced by calling Smart Contract / DApp\n  function receiveItem(uint _upc) public shipped(_upc) \n    {\n    // Update the appropriate fields - ownerID, retailerID, itemState\n      items[_upc].ownerID = msg.sender;\n      items[_upc].retailerID = msg.sender;\n      items[_upc].itemState = State.Received;\n    \n    // Emit the appropriate event\n     emit Received(_upc);\n    \n  }\n\n  // Define a function 'purchaseItem' that allows the consumer to mark an item 'Purchased'\n  // Use the above modifiers to check if the item is received\n  // Call modifier to check if upc has passed previous supply chain stage\n    // Access Control List enforced by calling Smart Contract / DApp\n  function purchaseItem(uint _upc) public  received(_upc) \n    {\n    // Update the appropriate fields - ownerID, consumerID, itemState\n        items[_upc].ownerID = msg.sender;\n        items[_upc].consumerID = msg.sender;\n        items[_upc].itemState = State.Purchased;\n    // Emit the appropriate event\n     emit Purchased(_upc);\n  }\n\n  // Define a function 'fetchItemBufferOne' that fetches the data\n  function fetchItemBufferOne(uint _upc) public view returns \n    (uint itemSKU, uint itemUPC, address ownerID, address originFarmerID, string memory originFarmName, string memory originFarmInformation,\n    string memory originFarmLatitude, string memory originFarmLongitude ) \n  {\n  // Assign values to the 8 parameters\n    Item memory item = items[_upc];\n\n      itemSKU = item.sku;\n      itemUPC = item.upc;\n      ownerID  = item.ownerID;\n      originFarmerID = item.originFarmerID;\n      originFarmName = item.originFarmName;\n      originFarmInformation = item.originFarmInformation;\n      originFarmLatitude = item.originFarmLatitude;\n      originFarmLongitude = item.originFarmLongitude;\n    \n    return \n      ( itemSKU, itemUPC, ownerID, originFarmerID, originFarmName, originFarmInformation, originFarmLatitude, originFarmLongitude );\n  }\n\n  // Define a function 'fetchItemBufferTwo' that fetches the data\n  function fetchItemBufferTwo(uint _upc) public view returns \n  (uint itemSKU,uint itemUPC,uint productID,string memory productNotes,uint productPrice,uint itemState,address distributorID,address retailerID,address consumerID ) \n  {\n    Item memory item = items[_upc];\n     // Assign values to the 9 parameters\n    itemSKU = item.sku;\n    itemUPC = item.upc;\n    productID = item.productID;\n    productNotes = item.productNotes;\n    productPrice = item.productPrice;\n    itemState = uint256(item.itemState);\n    distributorID = item.distributorID;\n    retailerID = item.retailerID;\n    consumerID = item.consumerID;\n  }\n}\n",
  "sourcePath": "A:\\blockchain\\BC_project3\\proba_react\\contracts\\coffeebase\\SupplyChain.sol",
  "compiler": {
    "name": "solc",
    "version": "0.8.6+commit.11564f7e.Emscripten.clang"
  },
  "schemaVersion": "3.4.2",
  "updatedAt": "2021-08-15T17:53:15.043Z",
  "networkType": "ethereum",
  "devdoc": {
    "kind": "dev",
    "methods": {},
    "version": 1
  },
  "userdoc": {
    "kind": "user",
    "methods": {},
    "version": 1
  }
}