{
  "contractName": "SupplyChain",
  "abi": [
    {
      "inputs": [],
      "stateMutability": "payable",
      "type": "constructor",
      "payable": true
    },
    {
      "anonymous": false,
      "inputs": [
        {
          "indexed": true,
          "internalType": "address",
          "name": "account",
          "type": "address"
        }
      ],
      "name": "FarmerAdded",
      "type": "event"
    },
    {
      "anonymous": false,
      "inputs": [
        {
          "indexed": true,
          "internalType": "address",
          "name": "account",
          "type": "address"
        }
      ],
      "name": "FarmerRemoved",
      "type": "event"
    },
    {
      "anonymous": false,
      "inputs": [
        {
          "indexed": false,
          "internalType": "uint256",
          "name": "upc",
          "type": "uint256"
        }
      ],
      "name": "ForSale",
      "type": "event"
    },
    {
      "anonymous": false,
      "inputs": [
        {
          "indexed": false,
          "internalType": "uint256",
          "name": "upc",
          "type": "uint256"
        }
      ],
      "name": "Harvested",
      "type": "event"
    },
    {
      "anonymous": false,
      "inputs": [
        {
          "indexed": false,
          "internalType": "uint256",
          "name": "upc",
          "type": "uint256"
        }
      ],
      "name": "Packed",
      "type": "event"
    },
    {
      "anonymous": false,
      "inputs": [
        {
          "indexed": false,
          "internalType": "uint256",
          "name": "upc",
          "type": "uint256"
        }
      ],
      "name": "Processed",
      "type": "event"
    },
    {
      "anonymous": false,
      "inputs": [
        {
          "indexed": false,
          "internalType": "uint256",
          "name": "upc",
          "type": "uint256"
        }
      ],
      "name": "Purchased",
      "type": "event"
    },
    {
      "anonymous": false,
      "inputs": [
        {
          "indexed": false,
          "internalType": "uint256",
          "name": "upc",
          "type": "uint256"
        }
      ],
      "name": "Received",
      "type": "event"
    },
    {
      "anonymous": false,
      "inputs": [
        {
          "indexed": false,
          "internalType": "uint256",
          "name": "upc",
          "type": "uint256"
        }
      ],
      "name": "Shipped",
      "type": "event"
    },
    {
      "anonymous": false,
      "inputs": [
        {
          "indexed": false,
          "internalType": "uint256",
          "name": "upc",
          "type": "uint256"
        }
      ],
      "name": "Sold",
      "type": "event"
    },
    {
      "inputs": [
        {
          "internalType": "address",
          "name": "account",
          "type": "address"
        }
      ],
      "name": "addConsumer",
      "outputs": [],
      "stateMutability": "nonpayable",
      "type": "function"
    },
    {
      "inputs": [
        {
          "internalType": "address",
          "name": "account",
          "type": "address"
        }
      ],
      "name": "addDistributor",
      "outputs": [],
      "stateMutability": "nonpayable",
      "type": "function"
    },
    {
      "inputs": [
        {
          "internalType": "address",
          "name": "account",
          "type": "address"
        }
      ],
      "name": "addFarmer",
      "outputs": [],
      "stateMutability": "nonpayable",
      "type": "function"
    },
    {
      "inputs": [
        {
          "internalType": "address",
          "name": "account",
          "type": "address"
        }
      ],
      "name": "addRetailer",
      "outputs": [],
      "stateMutability": "nonpayable",
      "type": "function"
    },
    {
      "inputs": [
        {
          "internalType": "address",
          "name": "account",
          "type": "address"
        }
      ],
      "name": "isConsumer",
      "outputs": [
        {
          "internalType": "bool",
          "name": "",
          "type": "bool"
        }
      ],
      "stateMutability": "view",
      "type": "function",
      "constant": true
    },
    {
      "inputs": [
        {
          "internalType": "address",
          "name": "account",
          "type": "address"
        }
      ],
      "name": "isDistributor",
      "outputs": [
        {
          "internalType": "bool",
          "name": "",
          "type": "bool"
        }
      ],
      "stateMutability": "view",
      "type": "function",
      "constant": true
    },
    {
      "inputs": [
        {
          "internalType": "address",
          "name": "account",
          "type": "address"
        }
      ],
      "name": "isFarmer",
      "outputs": [
        {
          "internalType": "bool",
          "name": "",
          "type": "bool"
        }
      ],
      "stateMutability": "view",
      "type": "function",
      "constant": true
    },
    {
      "inputs": [
        {
          "internalType": "address",
          "name": "account",
          "type": "address"
        }
      ],
      "name": "isRetailer",
      "outputs": [
        {
          "internalType": "bool",
          "name": "",
          "type": "bool"
        }
      ],
      "stateMutability": "view",
      "type": "function",
      "constant": true
    },
    {
      "inputs": [],
      "name": "renounceConsumer",
      "outputs": [],
      "stateMutability": "nonpayable",
      "type": "function"
    },
    {
      "inputs": [],
      "name": "renounceDistributor",
      "outputs": [],
      "stateMutability": "nonpayable",
      "type": "function"
    },
    {
      "inputs": [],
      "name": "renounceFarmer",
      "outputs": [],
      "stateMutability": "nonpayable",
      "type": "function"
    },
    {
      "inputs": [],
      "name": "renounceRetailer",
      "outputs": [],
      "stateMutability": "nonpayable",
      "type": "function"
    },
    {
      "inputs": [],
      "name": "kill",
      "outputs": [],
      "stateMutability": "nonpayable",
      "type": "function"
    },
    {
      "inputs": [
        {
          "internalType": "address",
          "name": "_originFarmerID",
          "type": "address"
        },
        {
          "internalType": "string",
          "name": "_originFarmName",
          "type": "string"
        },
        {
          "internalType": "string",
          "name": "_originFarmInformation",
          "type": "string"
        },
        {
          "internalType": "string",
          "name": "_originFarmLatitude",
          "type": "string"
        },
        {
          "internalType": "string",
          "name": "_originFarmLongitude",
          "type": "string"
        },
        {
          "internalType": "string",
          "name": "_productNotes",
          "type": "string"
        }
      ],
      "name": "register",
      "outputs": [
        {
          "components": [
            {
              "internalType": "uint256",
              "name": "sku",
              "type": "uint256"
            },
            {
              "internalType": "uint256",
              "name": "upc",
              "type": "uint256"
            },
            {
              "internalType": "address",
              "name": "ownerID",
              "type": "address"
            },
            {
              "internalType": "address",
              "name": "originFarmerID",
              "type": "address"
            },
            {
              "internalType": "string",
              "name": "originFarmName",
              "type": "string"
            },
            {
              "internalType": "string",
              "name": "originFarmInformation",
              "type": "string"
            },
            {
              "internalType": "string",
              "name": "originFarmLatitude",
              "type": "string"
            },
            {
              "internalType": "string",
              "name": "originFarmLongitude",
              "type": "string"
            },
            {
              "internalType": "uint256",
              "name": "productID",
              "type": "uint256"
            },
            {
              "internalType": "string",
              "name": "productNotes",
              "type": "string"
            },
            {
              "internalType": "uint256",
              "name": "productPrice",
              "type": "uint256"
            },
            {
              "internalType": "enum SupplyChain.State",
              "name": "itemState",
              "type": "uint8"
            },
            {
              "internalType": "address",
              "name": "distributorID",
              "type": "address"
            },
            {
              "internalType": "address",
              "name": "retailerID",
              "type": "address"
            },
            {
              "internalType": "address",
              "name": "consumerID",
              "type": "address"
            }
          ],
          "internalType": "struct SupplyChain.Item",
          "name": "itemReturn",
          "type": "tuple"
        }
      ],
      "stateMutability": "nonpayable",
      "type": "function"
    },
    {
      "inputs": [
        {
          "internalType": "uint256",
          "name": "_upc",
          "type": "uint256"
        }
      ],
      "name": "harvestItem",
      "outputs": [],
      "stateMutability": "nonpayable",
      "type": "function"
    },
    {
      "inputs": [
        {
          "internalType": "uint256",
          "name": "_upc",
          "type": "uint256"
        }
      ],
      "name": "processItem",
      "outputs": [],
      "stateMutability": "nonpayable",
      "type": "function"
    },
    {
      "inputs": [
        {
          "internalType": "uint256",
          "name": "_upc",
          "type": "uint256"
        }
      ],
      "name": "packItem",
      "outputs": [],
      "stateMutability": "nonpayable",
      "type": "function"
    },
    {
      "inputs": [
        {
          "internalType": "uint256",
          "name": "_upc",
          "type": "uint256"
        },
        {
          "internalType": "uint256",
          "name": "_price",
          "type": "uint256"
        }
      ],
      "name": "sellItem",
      "outputs": [],
      "stateMutability": "nonpayable",
      "type": "function"
    },
    {
      "inputs": [
        {
          "internalType": "uint256",
          "name": "_upc",
          "type": "uint256"
        }
      ],
      "name": "buyItem",
      "outputs": [],
      "stateMutability": "payable",
      "type": "function",
      "payable": true
    },
    {
      "inputs": [
        {
          "internalType": "uint256",
          "name": "_upc",
          "type": "uint256"
        }
      ],
      "name": "shipItem",
      "outputs": [],
      "stateMutability": "nonpayable",
      "type": "function"
    },
    {
      "inputs": [
        {
          "internalType": "uint256",
          "name": "_upc",
          "type": "uint256"
        }
      ],
      "name": "receiveItem",
      "outputs": [],
      "stateMutability": "nonpayable",
      "type": "function"
    },
    {
      "inputs": [
        {
          "internalType": "uint256",
          "name": "_upc",
          "type": "uint256"
        }
      ],
      "name": "purchaseItem",
      "outputs": [],
      "stateMutability": "nonpayable",
      "type": "function"
    },
    {
      "inputs": [
        {
          "internalType": "uint256",
          "name": "_upc",
          "type": "uint256"
        }
      ],
      "name": "fetchItemBufferOne",
      "outputs": [
        {
          "internalType": "uint256",
          "name": "itemSKU",
          "type": "uint256"
        },
        {
          "internalType": "uint256",
          "name": "itemUPC",
          "type": "uint256"
        },
        {
          "internalType": "address",
          "name": "ownerID",
          "type": "address"
        },
        {
          "internalType": "address",
          "name": "originFarmerID",
          "type": "address"
        },
        {
          "internalType": "string",
          "name": "originFarmName",
          "type": "string"
        },
        {
          "internalType": "string",
          "name": "originFarmInformation",
          "type": "string"
        },
        {
          "internalType": "string",
          "name": "originFarmLatitude",
          "type": "string"
        },
        {
          "internalType": "string",
          "name": "originFarmLongitude",
          "type": "string"
        }
      ],
      "stateMutability": "view",
      "type": "function",
      "constant": true
    },
    {
      "inputs": [
        {
          "internalType": "uint256",
          "name": "_upc",
          "type": "uint256"
        }
      ],
      "name": "fetchItemBufferTwo",
      "outputs": [
        {
          "internalType": "uint256",
          "name": "itemSKU",
          "type": "uint256"
        },
        {
          "internalType": "uint256",
          "name": "itemUPC",
          "type": "uint256"
        },
        {
          "internalType": "uint256",
          "name": "productID",
          "type": "uint256"
        },
        {
          "internalType": "string",
          "name": "productNotes",
          "type": "string"
        },
        {
          "internalType": "uint256",
          "name": "productPrice",
          "type": "uint256"
        },
        {
          "internalType": "uint256",
          "name": "itemState",
          "type": "uint256"
        },
        {
          "internalType": "address",
          "name": "distributorID",
          "type": "address"
        },
        {
          "internalType": "address",
          "name": "retailerID",
          "type": "address"
        },
        {
          "internalType": "address",
          "name": "consumerID",
          "type": "address"
        }
      ],
      "stateMutability": "view",
      "type": "function",
      "constant": true
    }
  ],
  "bytecode": "0x608060405262000015336200006c60201b60201c565b33600160006101000a81548173ffffffffffffffffffffffffffffffffffffffff021916908373ffffffffffffffffffffffffffffffffffffffff1602179055506001600381905550600160028190555062000216565b62000087816000620000cd60201b620027981790919060201c565b8073ffffffffffffffffffffffffffffffffffffffff167f2e0ded4123377a3c2bc9a26f1717655a129e2f20752924d42e730ec89c83dbd060405160405180910390a250565b600073ffffffffffffffffffffffffffffffffffffffff168173ffffffffffffffffffffffffffffffffffffffff1614156200010857600080fd5b6200011a82826200018360201b60201c565b156200012557600080fd5b60018260000160008373ffffffffffffffffffffffffffffffffffffffff1673ffffffffffffffffffffffffffffffffffffffff16815260200190815260200160002060006101000a81548160ff0219169083151502179055505050565b60008073ffffffffffffffffffffffffffffffffffffffff168273ffffffffffffffffffffffffffffffffffffffff161415620001bf57600080fd5b8260000160008373ffffffffffffffffffffffffffffffffffffffff1673ffffffffffffffffffffffffffffffffffffffff16815260200190815260200160002060009054906101000a900460ff16905092915050565b61395980620002266000396000f3fe60806040526004361061014b5760003560e01c806380fc0ce4116100b6578063b94290691161006f578063b942906914610471578063d38ea5bf146104ae578063db0e6a2f146104d7578063e7fb74c7146104ee578063f30fc4801461050a578063f61c899a146105335761014b565b806380fc0ce414610351578063834ff739146103685780638ec4f505146103a55780638f0c86fa146103ce578063a26be9991461040b578063b40dd61d146104345761014b565b806361e6982d1161010857806361e6982d14610248578063644241db1461025f57806366225ff9146102765780637250e224146102bb57806377c45913146102e457806380c3f96d146103285761014b565b8063112940f9146101505780632d92356114610179578063333d6a43146101a257806341c0e1b5146101cb57806349dae766146101e25780635da09b881461020b575b600080fd5b34801561015c57600080fd5b5061017760048036038101906101729190612c68565b61055c565b005b34801561018557600080fd5b506101a0600480360381019061019b9190612ddb565b61055f565b005b3480156101ae57600080fd5b506101c960048036038101906101c49190612dae565b610726565b005b3480156101d757600080fd5b506101e0610772565b005b3480156101ee57600080fd5b5061020960048036038101906102049190612dae565b610805565b005b34801561021757600080fd5b50610232600480360381019061022d9190612c68565b6109b0565b60405161023f9190613181565b60405180910390f35b34801561025457600080fd5b5061025d6109b7565b005b34801561026b57600080fd5b506102746109b9565b005b34801561028257600080fd5b5061029d60048036038101906102989190612dae565b6109bb565b6040516102b299989796959493929190613393565b60405180910390f35b3480156102c757600080fd5b506102e260048036038101906102dd9190612c68565b610f3d565b005b3480156102f057600080fd5b5061030b60048036038101906103069190612dae565b610f40565b60405161031f9897969594939291906132f9565b60405180910390f35b34801561033457600080fd5b5061034f600480360381019061034a9190612c68565b61149e565b005b34801561035d57600080fd5b506103666114bc565b005b34801561037457600080fd5b5061038f600480360381019061038a9190612c68565b6114c7565b60405161039c9190613181565b60405180910390f35b3480156103b157600080fd5b506103cc60048036038101906103c79190612c68565b6114ce565b005b3480156103da57600080fd5b506103f560048036038101906103f09190612c68565b6114d1565b6040516104029190613181565b60405180910390f35b34801561041757600080fd5b50610432600480360381019061042d9190612dae565b6114d8565b005b34801561044057600080fd5b5061045b60048036038101906104569190612c95565b611687565b60405161046891906132bc565b60405180910390f35b34801561047d57600080fd5b5061049860048036038101906104939190612c68565b611f2c565b6040516104a59190613181565b60405180910390f35b3480156104ba57600080fd5b506104d560048036038101906104d09190612dae565b611f49565b005b3480156104e357600080fd5b506104ec6120f8565b005b61050860048036038101906105039190612dae565b6120fa565b005b34801561051657600080fd5b50610531600480360381019061052c9190612dae565b612442565b005b34801561053f57600080fd5b5061055a60048036038101906105559190612dae565b6125ed565b005b50565b8160026007811115610574576105736136be565b5b60046000838152602001908152602001600020600b0160009054906101000a900460ff1660078111156105aa576105a96136be565b5b146105ea576040517f08c379a00000000000000000000000000000000000000000000000000000000081526004016105e19061329c565b60405180910390fd5b6004600084815260200190815260200160002060030160009054906101000a900473ffffffffffffffffffffffffffffffffffffffff168073ffffffffffffffffffffffffffffffffffffffff163373ffffffffffffffffffffffffffffffffffffffff161461068f576040517f08c379a0000000000000000000000000000000000000000000000000000000008152600401610686906131bc565b60405180910390fd5b600360046000868152602001908152602001600020600b0160006101000a81548160ff021916908360078111156106c9576106c86136be565b5b02179055508260046000868152602001908152602001600020600a01819055507f92f64ca637d023f354075a4be751b169c1a8a9ccb6d33cdd0cb35205439957278460405161071891906132de565b60405180910390a150505050565b61072f33611f2c565b61073857600080fd5b7f8e55ccfc9778ff8eba1646d765cf1982537ce0f9257054a17b48aad7452501838160405161076791906132de565b60405180910390a150565b600160009054906101000a900473ffffffffffffffffffffffffffffffffffffffff1673ffffffffffffffffffffffffffffffffffffffff163373ffffffffffffffffffffffffffffffffffffffff16141561080357600160009054906101000a900473ffffffffffffffffffffffffffffffffffffffff1673ffffffffffffffffffffffffffffffffffffffff16ff5b565b806000600781111561081a576108196136be565b5b60046000838152602001908152602001600020600b0160009054906101000a900460ff1660078111156108505761084f6136be565b5b14610890576040517f08c379a0000000000000000000000000000000000000000000000000000000008152600401610887906131fc565b60405180910390fd5b6004600083815260200190815260200160002060030160009054906101000a900473ffffffffffffffffffffffffffffffffffffffff168073ffffffffffffffffffffffffffffffffffffffff163373ffffffffffffffffffffffffffffffffffffffff1614610935576040517f08c379a000000000000000000000000000000000000000000000000000000000815260040161092c906131bc565b60405180910390fd5b600160046000858152602001908152602001600020600b0160006101000a81548160ff0219169083600781111561096f5761096e6136be565b5b02179055507f5afe3b1bf87069693c075da5c22a98d63d1aef98a30dbbe538d0781a98b77ee5836040516109a391906132de565b60405180910390a1505050565b6000919050565b565b565b60008060006060600080600080600080600460008c8152602001908152602001600020604051806101e001604052908160008201548152602001600182015481526020016002820160009054906101000a900473ffffffffffffffffffffffffffffffffffffffff1673ffffffffffffffffffffffffffffffffffffffff1673ffffffffffffffffffffffffffffffffffffffff1681526020016003820160009054906101000a900473ffffffffffffffffffffffffffffffffffffffff1673ffffffffffffffffffffffffffffffffffffffff1673ffffffffffffffffffffffffffffffffffffffff168152602001600482018054610aba906135e3565b80601f0160208091040260200160405190810160405280929190818152602001828054610ae6906135e3565b8015610b335780601f10610b0857610100808354040283529160200191610b33565b820191906000526020600020905b815481529060010190602001808311610b1657829003601f168201915b50505050508152602001600582018054610b4c906135e3565b80601f0160208091040260200160405190810160405280929190818152602001828054610b78906135e3565b8015610bc55780601f10610b9a57610100808354040283529160200191610bc5565b820191906000526020600020905b815481529060010190602001808311610ba857829003601f168201915b50505050508152602001600682018054610bde906135e3565b80601f0160208091040260200160405190810160405280929190818152602001828054610c0a906135e3565b8015610c575780601f10610c2c57610100808354040283529160200191610c57565b820191906000526020600020905b815481529060010190602001808311610c3a57829003601f168201915b50505050508152602001600782018054610c70906135e3565b80601f0160208091040260200160405190810160405280929190818152602001828054610c9c906135e3565b8015610ce95780601f10610cbe57610100808354040283529160200191610ce9565b820191906000526020600020905b815481529060010190602001808311610ccc57829003601f168201915b5050505050815260200160088201548152602001600982018054610d0c906135e3565b80601f0160208091040260200160405190810160405280929190818152602001828054610d38906135e3565b8015610d855780601f10610d5a57610100808354040283529160200191610d85565b820191906000526020600020905b815481529060010190602001808311610d6857829003601f168201915b50505050508152602001600a8201548152602001600b820160009054906101000a900460ff166007811115610dbd57610dbc6136be565b5b6007811115610dcf57610dce6136be565b5b8152602001600b820160019054906101000a900473ffffffffffffffffffffffffffffffffffffffff1673ffffffffffffffffffffffffffffffffffffffff1673ffffffffffffffffffffffffffffffffffffffff168152602001600c820160009054906101000a900473ffffffffffffffffffffffffffffffffffffffff1673ffffffffffffffffffffffffffffffffffffffff1673ffffffffffffffffffffffffffffffffffffffff168152602001600d820160009054906101000a900473ffffffffffffffffffffffffffffffffffffffff1673ffffffffffffffffffffffffffffffffffffffff1673ffffffffffffffffffffffffffffffffffffffff1681525050905080600001519950806020015198508061010001519750806101200151965080610140015195508061016001516007811115610f1557610f146136be565b5b94508061018001519350806101a001519250806101c001519150509193959799909294969850565b50565b6000806000806060806060806000600460008b8152602001908152602001600020604051806101e001604052908160008201548152602001600182015481526020016002820160009054906101000a900473ffffffffffffffffffffffffffffffffffffffff1673ffffffffffffffffffffffffffffffffffffffff1673ffffffffffffffffffffffffffffffffffffffff1681526020016003820160009054906101000a900473ffffffffffffffffffffffffffffffffffffffff1673ffffffffffffffffffffffffffffffffffffffff1673ffffffffffffffffffffffffffffffffffffffff16815260200160048201805461103d906135e3565b80601f0160208091040260200160405190810160405280929190818152602001828054611069906135e3565b80156110b65780601f1061108b576101008083540402835291602001916110b6565b820191906000526020600020905b81548152906001019060200180831161109957829003601f168201915b505050505081526020016005820180546110cf906135e3565b80601f01602080910402602001604051908101604052809291908181526020018280546110fb906135e3565b80156111485780601f1061111d57610100808354040283529160200191611148565b820191906000526020600020905b81548152906001019060200180831161112b57829003601f168201915b50505050508152602001600682018054611161906135e3565b80601f016020809104026020016040519081016040528092919081815260200182805461118d906135e3565b80156111da5780601f106111af576101008083540402835291602001916111da565b820191906000526020600020905b8154815290600101906020018083116111bd57829003601f168201915b505050505081526020016007820180546111f3906135e3565b80601f016020809104026020016040519081016040528092919081815260200182805461121f906135e3565b801561126c5780601f106112415761010080835404028352916020019161126c565b820191906000526020600020905b81548152906001019060200180831161124f57829003601f168201915b505050505081526020016008820154815260200160098201805461128f906135e3565b80601f01602080910402602001604051908101604052809291908181526020018280546112bb906135e3565b80156113085780601f106112dd57610100808354040283529160200191611308565b820191906000526020600020905b8154815290600101906020018083116112eb57829003601f168201915b50505050508152602001600a8201548152602001600b820160009054906101000a900460ff1660078111156113405761133f6136be565b5b6007811115611352576113516136be565b5b8152602001600b820160019054906101000a900473ffffffffffffffffffffffffffffffffffffffff1673ffffffffffffffffffffffffffffffffffffffff1673ffffffffffffffffffffffffffffffffffffffff168152602001600c820160009054906101000a900473ffffffffffffffffffffffffffffffffffffffff1673ffffffffffffffffffffffffffffffffffffffff1673ffffffffffffffffffffffffffffffffffffffff168152602001600d820160009054906101000a900473ffffffffffffffffffffffffffffffffffffffff1673ffffffffffffffffffffffffffffffffffffffff1673ffffffffffffffffffffffffffffffffffffffff1681525050905080600001519850806020015197508060400151965080606001519550806080015194508060a0015193508060c0015192508060e00151915050919395975091939597565b6114a733611f2c565b6114b057600080fd5b6114b981612844565b50565b6114c53361289e565b565b6000919050565b50565b6000919050565b80600560078111156114ed576114ec6136be565b5b60046000838152602001908152602001600020600b0160009054906101000a900460ff166007811115611523576115226136be565b5b14611563576040517f08c379a000000000000000000000000000000000000000000000000000000000815260040161155a9061327c565b60405180910390fd5b336004600084815260200190815260200160002060020160006101000a81548173ffffffffffffffffffffffffffffffffffffffff021916908373ffffffffffffffffffffffffffffffffffffffff1602179055503360046000848152602001908152602001600020600c0160006101000a81548173ffffffffffffffffffffffffffffffffffffffff021916908373ffffffffffffffffffffffffffffffffffffffff160217905550600660046000848152602001908152602001600020600b0160006101000a81548160ff02191690836007811115611647576116466136be565b5b02179055507fa8142743f8f70a4c26f3691cf4ed59718381fb2f18070ec52be1f1022d8555578260405161167b91906132de565b60405180910390a15050565b61168f612a35565b6000604051806101e00160405280600354815260200160025481526020018973ffffffffffffffffffffffffffffffffffffffff1681526020018973ffffffffffffffffffffffffffffffffffffffff16815260200188815260200187815260200186815260200185815260200160025460035461170d91906134aa565b81526020018481526020016000815260200160006007811115611733576117326136be565b5b8152602001600073ffffffffffffffffffffffffffffffffffffffff168152602001600073ffffffffffffffffffffffffffffffffffffffff168152602001600073ffffffffffffffffffffffffffffffffffffffff16815250905080600460006002548152602001908152602001600020600082015181600001556020820151816001015560408201518160020160006101000a81548173ffffffffffffffffffffffffffffffffffffffff021916908373ffffffffffffffffffffffffffffffffffffffff16021790555060608201518160030160006101000a81548173ffffffffffffffffffffffffffffffffffffffff021916908373ffffffffffffffffffffffffffffffffffffffff1602179055506080820151816004019080519060200190611863929190612b2b565b5060a0820151816005019080519060200190611880929190612b2b565b5060c082015181600601908051906020019061189d929190612b2b565b5060e08201518160070190805190602001906118ba929190612b2b565b5061010082015181600801556101208201518160090190805190602001906118e3929190612b2b565b5061014082015181600a015561016082015181600b0160006101000a81548160ff0219169083600781111561191b5761191a6136be565b5b021790555061018082015181600b0160016101000a81548173ffffffffffffffffffffffffffffffffffffffff021916908373ffffffffffffffffffffffffffffffffffffffff1602179055506101a082015181600c0160006101000a81548173ffffffffffffffffffffffffffffffffffffffff021916908373ffffffffffffffffffffffffffffffffffffffff1602179055506101c082015181600d0160006101000a81548173ffffffffffffffffffffffffffffffffffffffff021916908373ffffffffffffffffffffffffffffffffffffffff160217905550905050600460006002548152602001908152602001600020604051806101e001604052908160008201548152602001600182015481526020016002820160009054906101000a900473ffffffffffffffffffffffffffffffffffffffff1673ffffffffffffffffffffffffffffffffffffffff1673ffffffffffffffffffffffffffffffffffffffff1681526020016003820160009054906101000a900473ffffffffffffffffffffffffffffffffffffffff1673ffffffffffffffffffffffffffffffffffffffff1673ffffffffffffffffffffffffffffffffffffffff168152602001600482018054611aec906135e3565b80601f0160208091040260200160405190810160405280929190818152602001828054611b18906135e3565b8015611b655780601f10611b3a57610100808354040283529160200191611b65565b820191906000526020600020905b815481529060010190602001808311611b4857829003601f168201915b50505050508152602001600582018054611b7e906135e3565b80601f0160208091040260200160405190810160405280929190818152602001828054611baa906135e3565b8015611bf75780601f10611bcc57610100808354040283529160200191611bf7565b820191906000526020600020905b815481529060010190602001808311611bda57829003601f168201915b50505050508152602001600682018054611c10906135e3565b80601f0160208091040260200160405190810160405280929190818152602001828054611c3c906135e3565b8015611c895780601f10611c5e57610100808354040283529160200191611c89565b820191906000526020600020905b815481529060010190602001808311611c6c57829003601f168201915b50505050508152602001600782018054611ca2906135e3565b80601f0160208091040260200160405190810160405280929190818152602001828054611cce906135e3565b8015611d1b5780601f10611cf057610100808354040283529160200191611d1b565b820191906000526020600020905b815481529060010190602001808311611cfe57829003601f168201915b5050505050815260200160088201548152602001600982018054611d3e906135e3565b80601f0160208091040260200160405190810160405280929190818152602001828054611d6a906135e3565b8015611db75780601f10611d8c57610100808354040283529160200191611db7565b820191906000526020600020905b815481529060010190602001808311611d9a57829003601f168201915b50505050508152602001600a8201548152602001600b820160009054906101000a900460ff166007811115611def57611dee6136be565b5b6007811115611e0157611e006136be565b5b8152602001600b820160019054906101000a900473ffffffffffffffffffffffffffffffffffffffff1673ffffffffffffffffffffffffffffffffffffffff1673ffffffffffffffffffffffffffffffffffffffff168152602001600c820160009054906101000a900473ffffffffffffffffffffffffffffffffffffffff1673ffffffffffffffffffffffffffffffffffffffff1673ffffffffffffffffffffffffffffffffffffffff168152602001600d820160009054906101000a900473ffffffffffffffffffffffffffffffffffffffff1673ffffffffffffffffffffffffffffffffffffffff1673ffffffffffffffffffffffffffffffffffffffff1681525050915060036000815480929190611f1c90613646565b9190505550509695505050505050565b6000611f428260006128f890919063ffffffff16565b9050919050565b8060066007811115611f5e57611f5d6136be565b5b60046000838152602001908152602001600020600b0160009054906101000a900460ff166007811115611f9457611f936136be565b5b14611fd4576040517f08c379a0000000000000000000000000000000000000000000000000000000008152600401611fcb9061321c565b60405180910390fd5b336004600084815260200190815260200160002060020160006101000a81548173ffffffffffffffffffffffffffffffffffffffff021916908373ffffffffffffffffffffffffffffffffffffffff1602179055503360046000848152602001908152602001600020600d0160006101000a81548173ffffffffffffffffffffffffffffffffffffffff021916908373ffffffffffffffffffffffffffffffffffffffff160217905550600760046000848152602001908152602001600020600b0160006101000a81548160ff021916908360078111156120b8576120b76136be565b5b02179055507f653d56639fee6b566a5c804764e9689de38645f0b733df89a36a1b7b42173dd8826040516120ec91906132de565b60405180910390a15050565b565b806003600781111561210f5761210e6136be565b5b60046000838152602001908152602001600020600b0160009054906101000a900460ff166007811115612145576121446136be565b5b14612185576040517f08c379a000000000000000000000000000000000000000000000000000000000815260040161217c9061325c565b60405180910390fd5b60046000838152602001908152602001600020600a0154803410156121df576040517f08c379a00000000000000000000000000000000000000000000000000000000081526004016121d69061319c565b60405180910390fd5b82336004600086815260200190815260200160002060020160006101000a81548173ffffffffffffffffffffffffffffffffffffffff021916908373ffffffffffffffffffffffffffffffffffffffff1602179055503360046000868152602001908152602001600020600b0160016101000a81548173ffffffffffffffffffffffffffffffffffffffff021916908373ffffffffffffffffffffffffffffffffffffffff1602179055506004806000868152602001908152602001600020600b0160006101000a81548160ff021916908360078111156122c3576122c26136be565b5b02179055506004600085815260200190815260200160002060030160009054906101000a900473ffffffffffffffffffffffffffffffffffffffff1673ffffffffffffffffffffffffffffffffffffffff166108fc60046000878152602001908152602001600020600a01549081150290604051600060405180830381858888f1935050505015801561235a573d6000803e3d6000fd5b507f92f64ca637d023f354075a4be751b169c1a8a9ccb6d33cdd0cb35205439957278460405161238a91906132de565b60405180910390a1600060046000838152602001908152602001600020600a01549050600081346123bb9190613500565b905060046000848152602001908152602001600020600d0160009054906101000a900473ffffffffffffffffffffffffffffffffffffffff1673ffffffffffffffffffffffffffffffffffffffff166108fc829081150290604051600060405180830381858888f19350505050158015612439573d6000803e3d6000fd5b50505050505050565b8060016007811115612457576124566136be565b5b60046000838152602001908152602001600020600b0160009054906101000a900460ff16600781111561248d5761248c6136be565b5b146124cd576040517f08c379a00000000000000000000000000000000000000000000000000000000081526004016124c4906131dc565b60405180910390fd5b6004600083815260200190815260200160002060030160009054906101000a900473ffffffffffffffffffffffffffffffffffffffff168073ffffffffffffffffffffffffffffffffffffffff163373ffffffffffffffffffffffffffffffffffffffff1614612572576040517f08c379a0000000000000000000000000000000000000000000000000000000008152600401612569906131bc565b60405180910390fd5b600260046000858152602001908152602001600020600b0160006101000a81548160ff021916908360078111156125ac576125ab6136be565b5b02179055507f9b3b66e2380b690bae22c73ef1428fb0c91e72fe14a4b6defa13035214187aff836040516125e091906132de565b60405180910390a1505050565b8060046007811115612602576126016136be565b5b60046000838152602001908152602001600020600b0160009054906101000a900460ff166007811115612638576126376136be565b5b14612678576040517f08c379a000000000000000000000000000000000000000000000000000000000815260040161266f9061323c565b60405180910390fd5b60046000838152602001908152602001600020600b0160019054906101000a900473ffffffffffffffffffffffffffffffffffffffff168073ffffffffffffffffffffffffffffffffffffffff163373ffffffffffffffffffffffffffffffffffffffff161461271d576040517f08c379a0000000000000000000000000000000000000000000000000000000008152600401612714906131bc565b60405180910390fd5b600560046000858152602001908152602001600020600b0160006101000a81548160ff02191690836007811115612757576127566136be565b5b02179055507ff00b9a5725b80c54016f42114f6ed7792d22eecb116011c4afac29c57bef6c958360405161278b91906132de565b60405180910390a1505050565b600073ffffffffffffffffffffffffffffffffffffffff168173ffffffffffffffffffffffffffffffffffffffff1614156127d257600080fd5b6127dc82826128f8565b156127e657600080fd5b60018260000160008373ffffffffffffffffffffffffffffffffffffffff1673ffffffffffffffffffffffffffffffffffffffff16815260200190815260200160002060006101000a81548160ff0219169083151502179055505050565b61285881600061279890919063ffffffff16565b8073ffffffffffffffffffffffffffffffffffffffff167f2e0ded4123377a3c2bc9a26f1717655a129e2f20752924d42e730ec89c83dbd060405160405180910390a250565b6128b281600061298a90919063ffffffff16565b8073ffffffffffffffffffffffffffffffffffffffff167fa5e0f060af304ab17dd418c7927e3da3ae7868189bf387aee09ab179ccc572f260405160405180910390a250565b60008073ffffffffffffffffffffffffffffffffffffffff168273ffffffffffffffffffffffffffffffffffffffff16141561293357600080fd5b8260000160008373ffffffffffffffffffffffffffffffffffffffff1673ffffffffffffffffffffffffffffffffffffffff16815260200190815260200160002060009054906101000a900460ff16905092915050565b600073ffffffffffffffffffffffffffffffffffffffff168173ffffffffffffffffffffffffffffffffffffffff1614156129c457600080fd5b6129ce82826128f8565b6129d757600080fd5b60008260000160008373ffffffffffffffffffffffffffffffffffffffff1673ffffffffffffffffffffffffffffffffffffffff16815260200190815260200160002060006101000a81548160ff0219169083151502179055505050565b604051806101e001604052806000815260200160008152602001600073ffffffffffffffffffffffffffffffffffffffff168152602001600073ffffffffffffffffffffffffffffffffffffffff1681526020016060815260200160608152602001606081526020016060815260200160008152602001606081526020016000815260200160006007811115612ace57612acd6136be565b5b8152602001600073ffffffffffffffffffffffffffffffffffffffff168152602001600073ffffffffffffffffffffffffffffffffffffffff168152602001600073ffffffffffffffffffffffffffffffffffffffff1681525090565b828054612b37906135e3565b90600052602060002090601f016020900481019282612b595760008555612ba0565b82601f10612b7257805160ff1916838001178555612ba0565b82800160010185558215612ba0579182015b82811115612b9f578251825591602001919060010190612b84565b5b509050612bad9190612bb1565b5090565b5b80821115612bca576000816000905550600101612bb2565b5090565b6000612be1612bdc8461344c565b613427565b905082815260208101848484011115612bfd57612bfc613750565b5b612c088482856135a1565b509392505050565b600081359050612c1f816138f5565b92915050565b600082601f830112612c3a57612c3961374b565b5b8135612c4a848260208601612bce565b91505092915050565b600081359050612c628161390c565b92915050565b600060208284031215612c7e57612c7d61375a565b5b6000612c8c84828501612c10565b91505092915050565b60008060008060008060c08789031215612cb257612cb161375a565b5b6000612cc089828a01612c10565b965050602087013567ffffffffffffffff811115612ce157612ce0613755565b5b612ced89828a01612c25565b955050604087013567ffffffffffffffff811115612d0e57612d0d613755565b5b612d1a89828a01612c25565b945050606087013567ffffffffffffffff811115612d3b57612d3a613755565b5b612d4789828a01612c25565b935050608087013567ffffffffffffffff811115612d6857612d67613755565b5b612d7489828a01612c25565b92505060a087013567ffffffffffffffff811115612d9557612d94613755565b5b612da189828a01612c25565b9150509295509295509295565b600060208284031215612dc457612dc361375a565b5b6000612dd284828501612c53565b91505092915050565b60008060408385031215612df257612df161375a565b5b6000612e0085828601612c53565b9250506020612e1185828601612c53565b9150509250929050565b612e2481613534565b82525050565b612e3381613534565b82525050565b612e4281613546565b82525050565b612e518161358f565b82525050565b6000612e628261347d565b612e6c8185613488565b9350612e7c8185602086016135b0565b612e858161375f565b840191505092915050565b6000612e9b8261347d565b612ea58185613499565b9350612eb58185602086016135b0565b612ebe8161375f565b840191505092915050565b6000612ed6601a83613499565b9150612ee182613770565b602082019050919050565b6000612ef9601b83613499565b9150612f0482613799565b602082019050919050565b6000612f1c601883613499565b9150612f27826137c2565b602082019050919050565b6000612f3f601883613499565b9150612f4a826137eb565b602082019050919050565b6000612f62601783613499565b9150612f6d82613814565b602082019050919050565b6000612f85601383613499565b9150612f908261383d565b602082019050919050565b6000612fa8601683613499565b9150612fb382613866565b602082019050919050565b6000612fcb601683613499565b9150612fd68261388f565b602082019050919050565b6000612fee601583613499565b9150612ff9826138b8565b602082019050919050565b60006101e08301600083015161301d6000860182613163565b5060208301516130306020860182613163565b5060408301516130436040860182612e1b565b5060608301516130566060860182612e1b565b506080830151848203608086015261306e8282612e57565b91505060a083015184820360a08601526130888282612e57565b91505060c083015184820360c08601526130a28282612e57565b91505060e083015184820360e08601526130bc8282612e57565b9150506101008301516130d3610100860182613163565b506101208301518482036101208601526130ed8282612e57565b915050610140830151613104610140860182613163565b50610160830151613119610160860182612e48565b5061018083015161312e610180860182612e1b565b506101a08301516131436101a0860182612e1b565b506101c08301516131586101c0860182612e1b565b508091505092915050565b61316c81613585565b82525050565b61317b81613585565b82525050565b60006020820190506131966000830184612e39565b92915050565b600060208201905081810360008301526131b581612ec9565b9050919050565b600060208201905081810360008301526131d581612eec565b9050919050565b600060208201905081810360008301526131f581612f0f565b9050919050565b6000602082019050818103600083015261321581612f32565b9050919050565b6000602082019050818103600083015261323581612f55565b9050919050565b6000602082019050818103600083015261325581612f78565b9050919050565b6000602082019050818103600083015261327581612f9b565b9050919050565b6000602082019050818103600083015261329581612fbe565b9050919050565b600060208201905081810360008301526132b581612fe1565b9050919050565b600060208201905081810360008301526132d68184613004565b905092915050565b60006020820190506132f36000830184613172565b92915050565b60006101008201905061330f600083018b613172565b61331c602083018a613172565b6133296040830189612e2a565b6133366060830188612e2a565b81810360808301526133488187612e90565b905081810360a083015261335c8186612e90565b905081810360c08301526133708185612e90565b905081810360e08301526133848184612e90565b90509998505050505050505050565b6000610120820190506133a9600083018c613172565b6133b6602083018b613172565b6133c3604083018a613172565b81810360608301526133d58189612e90565b90506133e46080830188613172565b6133f160a0830187613172565b6133fe60c0830186612e2a565b61340b60e0830185612e2a565b613419610100830184612e2a565b9a9950505050505050505050565b6000613431613442565b905061343d8282613615565b919050565b6000604051905090565b600067ffffffffffffffff8211156134675761346661371c565b5b6134708261375f565b9050602081019050919050565b600081519050919050565b600082825260208201905092915050565b600082825260208201905092915050565b60006134b582613585565b91506134c083613585565b9250827fffffffffffffffffffffffffffffffffffffffffffffffffffffffffffffffff038211156134f5576134f461368f565b5b828201905092915050565b600061350b82613585565b915061351683613585565b9250828210156135295761352861368f565b5b828203905092915050565b600061353f82613565565b9050919050565b60008115159050919050565b6000819050613560826138e1565b919050565b600073ffffffffffffffffffffffffffffffffffffffff82169050919050565b6000819050919050565b600061359a82613552565b9050919050565b82818337600083830152505050565b60005b838110156135ce5780820151818401526020810190506135b3565b838111156135dd576000848401525b50505050565b600060028204905060018216806135fb57607f821691505b6020821081141561360f5761360e6136ed565b5b50919050565b61361e8261375f565b810181811067ffffffffffffffff8211171561363d5761363c61371c565b5b80604052505050565b600061365182613585565b91507fffffffffffffffffffffffffffffffffffffffffffffffffffffffffffffffff8214156136845761368361368f565b5b600182019050919050565b7f4e487b7100000000000000000000000000000000000000000000000000000000600052601160045260246000fd5b7f4e487b7100000000000000000000000000000000000000000000000000000000600052602160045260246000fd5b7f4e487b7100000000000000000000000000000000000000000000000000000000600052602260045260246000fd5b7f4e487b7100000000000000000000000000000000000000000000000000000000600052604160045260246000fd5b600080fd5b600080fd5b600080fd5b600080fd5b6000601f19601f8301169050919050565b7f6d6f646966696572207061696420656e6f756768206572726f72000000000000600082015250565b7f6d6f6469666965722076657269667943616c6c6572206572726f720000000000600082015250565b7f6d6f6469666965722070726f636573736564206572726f720000000000000000600082015250565b7f6d6f64696669657220686172766573746564206572726f720000000000000000600082015250565b7f6d6f646966696572207265636569766564206572726f72000000000000000000600082015250565b7f6d6f64696669657220736f6c64206572726f7200000000000000000000000000600082015250565b7f6d6f64696669657220666f7273616c65206572726f7200000000000000000000600082015250565b7f6d6f6469666965722073686970706564206572726f7200000000000000000000600082015250565b7f6d6f646966696572207061636b6564206572726f720000000000000000000000600082015250565b600881106138f2576138f16136be565b5b50565b6138fe81613534565b811461390957600080fd5b50565b61391581613585565b811461392057600080fd5b5056fea2646970667358221220eff996dccef88a6cc8a0b4c124d6f0e0be61cc3cb410bd928c4d1db2a4d7309264736f6c63430008060033",
  "immutableReferences": {},
  "source": "// SPDX-License-Identifier: MIT\npragma solidity >=0.8.6;\n\n// Define a contract 'Supplychain'\nimport \"./../coffeeaccesscontrol/ConsumerRole.sol\";\nimport \"./../coffeeaccesscontrol/DistributorRole.sol\";\nimport \"./../coffeeaccesscontrol/FarmerRole.sol\";\nimport \"./../coffeeaccesscontrol/RetailerRole.sol\";\n\ncontract SupplyChain is ConsumerRole, FarmerRole, DistributorRole, RetailerRole {\n\n  // Define 'owner'\n  address owner;\n\n  // Define a variable called 'upc' for Universal Product Code (UPC)\n  uint  upc;\n\n  // Define a variable called 'sku' for Stock Keeping Unit (SKU)\n  uint  sku;\n\n  // Define a public mapping 'items' that maps the UPC to an Item.\n  mapping (uint => Item) items;\n\n  // Define a public mapping 'itemsHistory' that maps the UPC to an array of TxHash, \n  // that track its journey through the supply chain -- to be sent from DApp.\n  mapping (uint => string[]) itemsHistory;\n  \n  // Define enum 'State' with the following values:\n  enum State \n  { \n    Harvested,  // 0\n    Processed,  // 1\n    Packed,     // 2\n    ForSale,    // 3\n    Sold,       // 4\n    Shipped,    // 5\n    Received,   // 6\n    Purchased   // 7\n    }\n\n  State constant defaultState = State.Harvested;\n\n  // Define a struct 'Item' with the following fields:\n  struct Item {\n    uint    sku;  // Stock Keeping Unit (SKU)\n    uint    upc; // Universal Product Code (UPC), generated by the Farmer, goes on the package, can be verified by the Consumer\n    address ownerID;  // Metamask-Ethereum address of the current owner as the product moves through 8 stages\n    address originFarmerID; // Metamask-Ethereum address of the Farmer\n    string  originFarmName; // Farmer Name\n    string  originFarmInformation;  // Farmer Information\n    string  originFarmLatitude; // Farm Latitude\n    string  originFarmLongitude;  // Farm Longitude\n    uint    productID;  // Product ID potentially a combination of upc + sku\n    string  productNotes; // Product Notes\n    uint    productPrice; // Product Price\n    State   itemState;  // Product State as represented in the enum above\n    address distributorID;  // Metamask-Ethereum address of the Distributor\n    address retailerID; // Metamask-Ethereum address of the Retailer\n    address consumerID; // Metamask-Ethereum address of the Consumer\n  }\n\n  // Define 8 events with the same 8 state values and accept 'upc' as input argument\n  event Harvested(uint upc);\n  event Processed(uint upc);\n  event Packed(uint upc);\n  event ForSale(uint upc);\n  event Sold(uint upc);\n  event Shipped(uint upc);\n  event Received(uint upc);\n  event Purchased(uint upc);\n\n  // Define a modifer that checks to see if msg.sender == owner of the contract\n  modifier onlyOwner() {\n    require(msg.sender == owner, \"modifier only owner error\");\n    _;\n  }\n\n  // Define a modifer that verifies the Caller\n  modifier verifyCaller (address _address) {\n    require(msg.sender == _address, \"modifier verifyCaller error\"); \n    _;\n  }\n\n  // Define a modifier that checks if the paid amount is sufficient to cover the price\n  modifier paidEnough(uint _price) { \n    require(msg.value >= _price, \"modifier paid enough error\"); \n    _;\n  }\n  \n  // Define a modifier that checks the price and refunds the remaining balance\n  modifier checkValue(uint _upc) {\n    _;\n    uint _price = items[_upc].productPrice;\n    uint amountToReturn = msg.value - _price;\n    payable(items[_upc].consumerID).transfer(amountToReturn);\n  }\n\n  // Define a modifier that checks if an item.state of a upc is Harvested\n  modifier harvested(uint _upc) {\n    require(items[_upc].itemState == State.Harvested, \"modifier harvested error\");\n    _;\n  }\n\n  // Define a modifier that checks if an item.state of a upc is Processed\n  modifier processed(uint _upc) {\n    require(items[_upc].itemState == State.Processed, \"modifier processed error\");\n    _;\n  }\n  \n  // Define a modifier that checks if an item.state of a upc is Packed\n  modifier packed(uint _upc) {\n  require(items[_upc].itemState == State.Packed, \"modifier packed error\");\n    _;\n  }\n\n  // Define a modifier that checks if an item.state of a upc is ForSale\n  modifier forSale(uint _upc) {\n    require(items[_upc].itemState == State.ForSale, \"modifier forsale error\");\n    _;\n  }\n\n  // Define a modifier that checks if an item.state of a upc is Sold\n  modifier sold(uint _upc) {\n    require(items[_upc].itemState == State.Sold, \"modifier sold error\");\n    _;\n  }\n  \n  // Define a modifier that checks if an item.state of a upc is Shipped\n  modifier shipped(uint _upc) {\n    require(items[_upc].itemState == State.Shipped, \"modifier shipped error\");\n    _;\n  }\n\n  // Define a modifier that checks if an item.state of a upc is Received\n  modifier received(uint _upc) {\n    require(items[_upc].itemState == State.Received, \"modifier received error\");\n    _;\n  }\n\n  // Define a modifier that checks if an item.state of a upc is Purchased\n  modifier purchased(uint _upc) {\n    require(items[_upc].itemState == State.Purchased, \"modifier purchased error\");\n    _;\n  }\n\n  // In the constructor set 'owner' to the address that instantiated the contract\n  // and set 'sku' to 1\n  // and set 'upc' to 1\n  constructor()  payable {\n    owner = msg.sender;\n    sku = 1;\n    upc = 1;\n  }\n\n  // Define a function 'kill' if required\n  function kill() public {\n    if (msg.sender == owner) {\n      selfdestruct(payable(owner));\n    }\n  }\n\n  function register(\n    address _originFarmerID, \n    string memory _originFarmName, \n    string memory _originFarmInformation, \n    string memory _originFarmLatitude, \n    string memory _originFarmLongitude, \n    string memory _productNotes ) public returns (Item memory itemReturn){\n \n\n  Item memory item = Item({\n        sku: sku,\n        upc: upc,\n        ownerID: _originFarmerID,\n        originFarmerID: _originFarmerID,\n        originFarmName: _originFarmName,\n        originFarmInformation: _originFarmInformation,\n        originFarmLatitude: _originFarmLatitude,\n        originFarmLongitude: _originFarmLongitude,\n        productID: sku+upc,\n        productNotes: _productNotes,\n        productPrice: 0,\n        itemState: defaultState,\n        distributorID: address(0),\n        retailerID:  address(0),\n        consumerID:  address(0)\n    });\n    \n    items[upc] = item;\n    itemReturn = items[upc];\n    sku++;\n  }\n\n  // Define a function 'harvestItem' that allows a farmer to mark an item 'Harvested'\n /* function harvestItem(uint _upc, address _originFarmerID, string memory _originFarmName, string memory _originFarmInformation, string memory _originFarmLatitude, \n                            string memory _originFarmLongitude, string memory _productNotes) public onlyFarmer*/\n  function harvestItem(uint _upc) public onlyFarmer\n  {\n    // Add the new item as part of Harvest\n    /*----------*/\n   /* Item memory item = Item({\n        sku: sku,\n        upc: _upc,\n        ownerID: _originFarmerID,\n        originFarmerID: _originFarmerID,\n        originFarmName: _originFarmName,\n        originFarmInformation: _originFarmInformation,\n        originFarmLatitude: _originFarmLatitude,\n        originFarmLongitude: _originFarmLongitude,\n        productID: sku+_upc,\n        productNotes: _productNotes,\n        productPrice: 0,\n        itemState: defaultState\n        distributorID: address(0),\n        retailerID: address(0),\n        consumerID: address(0)\n    });*/\n    //items[_upc] = item;\n    \n    // Increment sku\n   // sku = sku + 1;\n    // Emit the appropriate event\n    /*------*/\n     emit Harvested(_upc);\n    \n  }\n\n  // Define a function 'processtItem' that allows a farmer to mark an item 'Processed'\n   // Call modifier to check if upc has passed previous supply chain stage\n  // Call modifier to verify caller of this function\n  function processItem(uint _upc) public harvested(_upc) verifyCaller(items[_upc].originFarmerID)\n  {\n    // Update the appropriate fields\n    items[_upc].itemState = State.Processed;\n    // Emit the appropriate event\n    emit Processed(_upc);\n    \n  }\n\n  // Define a function 'packItem' that allows a farmer to mark an item 'Packed'\n  // Call modifier to check if upc has passed previous supply chain stage\n  // Call modifier to verify caller of this function\n  function packItem(uint _upc) public processed(_upc) verifyCaller(items[_upc].originFarmerID)\n  {\n    // Update the appropriate fields\n    items[_upc].itemState = State.Packed;\n    // Emit the appropriate event\n    emit Packed(_upc);\n  }\n\n  // Define a function 'sellItem' that allows a farmer to mark an item 'ForSale'\n  // Call modifier to check if upc has passed previous supply chain stage\n  // Call modifier to verify caller of this function\n  function sellItem(uint _upc, uint _price) public  packed(_upc) verifyCaller(items[_upc].originFarmerID)\n  {\n    // Update the appropriate fields\n     items[_upc].itemState = State.ForSale;\n     items[_upc].productPrice = _price;\n    // Emit the appropriate event\n    emit Sold(_upc);\n  }\n\n  // Define a function 'buyItem' that allows the disributor to mark an item 'Sold'\n  // Use the above defined modifiers to check if the item is available for sale, if the buyer has paid enough, \n  // and any excess ether sent is refunded back to the buyer\n  // Call modifier to check if upc has passed previous supply chain stage\n  // Call modifer to check if buyer has paid enough\n  // Call modifer to send any excess ether back to buyer\n  function buyItem(uint _upc) public payable forSale(_upc) paidEnough(items[_upc].productPrice) checkValue(_upc)\n    {\n    // Update the appropriate fields - ownerID, distributorID, itemState\n    items[_upc].ownerID = msg.sender;\n    items[_upc].distributorID = msg.sender;\n    items[_upc].itemState = State.Sold;\n    // Transfer money to farmer\n     payable(items[_upc].originFarmerID).transfer(items[_upc].productPrice);\n    // emit the appropriate event\n    emit Sold(_upc);\n  }\n\n  // Define a function 'shipItem' that allows the distributor to mark an item 'Shipped'\n  // Use the above modifers to check if the item is sold\n  // Call modifier to check if upc has passed previous supply chain stage\n    // Call modifier to verify caller of this function\n  function shipItem(uint _upc) public sold(_upc) verifyCaller(items[_upc].distributorID)\n    {\n    // Update the appropriate fields\n    items[_upc].itemState = State.Shipped;\n    // Emit the appropriate event\n    emit Shipped(_upc);\n  }\n\n  // Define a function 'receiveItem' that allows the retailer to mark an item 'Received'\n  // Use the above modifiers to check if the item is shipped\n   // Call modifier to check if upc has passed previous supply chain stage\n    // Access Control List enforced by calling Smart Contract / DApp\n  function receiveItem(uint _upc) public shipped(_upc) onlyRetailer\n    {\n    // Update the appropriate fields - ownerID, retailerID, itemState\n      items[_upc].ownerID = msg.sender;\n      items[_upc].retailerID = msg.sender;\n      items[_upc].itemState = State.Received;\n    \n    // Emit the appropriate event\n     emit Received(_upc);\n    \n  }\n\n  // Define a function 'purchaseItem' that allows the consumer to mark an item 'Purchased'\n  // Use the above modifiers to check if the item is received\n  // Call modifier to check if upc has passed previous supply chain stage\n    // Access Control List enforced by calling Smart Contract / DApp\n  function purchaseItem(uint _upc) public  received(_upc) onlyConsumer\n    {\n    // Update the appropriate fields - ownerID, consumerID, itemState\n        items[_upc].ownerID = msg.sender;\n        items[_upc].consumerID = msg.sender;\n        items[_upc].itemState = State.Purchased;\n    // Emit the appropriate event\n     emit Purchased(_upc);\n  }\n\n  // Define a function 'fetchItemBufferOne' that fetches the data\n  function fetchItemBufferOne(uint _upc) public view returns \n    (uint itemSKU, uint itemUPC, address ownerID, address originFarmerID, string memory originFarmName, string memory originFarmInformation,\n    string memory originFarmLatitude, string memory originFarmLongitude ) \n  {\n  // Assign values to the 8 parameters\n    Item memory item = items[_upc];\n\n      itemSKU = item.sku;\n      itemUPC = item.upc;\n      ownerID  = item.ownerID;\n      originFarmerID = item.originFarmerID;\n      originFarmName = item.originFarmName;\n      originFarmInformation = item.originFarmInformation;\n      originFarmLatitude = item.originFarmLatitude;\n      originFarmLongitude = item.originFarmLongitude;\n    \n    return \n      ( itemSKU, itemUPC, ownerID, originFarmerID, originFarmName, originFarmInformation, originFarmLatitude, originFarmLongitude );\n  }\n\n  // Define a function 'fetchItemBufferTwo' that fetches the data\n  function fetchItemBufferTwo(uint _upc) public view returns \n  (uint itemSKU,uint itemUPC,uint productID,string memory productNotes,uint productPrice,uint itemState,address distributorID,address retailerID,address consumerID ) \n  {\n    Item memory item = items[_upc];\n    \n    itemSKU = item.sku;\n    itemUPC = item.upc;\n    productID = item.productID;\n    productNotes = item.productNotes;\n    productPrice = item.productPrice;\n    itemState = uint256(item.itemState);\n    distributorID = item.distributorID;\n    retailerID = item.retailerID;\n    consumerID = item.consumerID;\n    // Assign values to the 9 parameters\n\n     /*\n struct Item {\n    uint    sku;  // Stock Keeping Unit (SKU)\n    uint    upc; // Universal Product Code (UPC), generated by the Farmer, goes on the package, can be verified by the Consumer\n    address ownerID;  // Metamask-Ethereum address of the current owner as the product moves through 8 stages\n    address originFarmerID; // Metamask-Ethereum address of the Farmer\n    string  originFarmName; // Farmer Name\n    string  originFarmInformation;  // Farmer Information\n    string  originFarmLatitude; // Farm Latitude\n    string  originFarmLongitude;  // Farm Longitude\n    uint    productID;  // Product ID potentially a combination of upc + sku\n    string  productNotes; // Product Notes\n    uint    productPrice; // Product Price\n    State   itemState;  // Product State as represented in the enum above\n    address distributorID;  // Metamask-Ethereum address of the Distributor\n    address retailerID; // Metamask-Ethereum address of the Retailer\n    address consumerID; // Metamask-Ethereum address of the Consumer\n  }\n    */\n    \n//  return     (itemSKU, itemUPC, productID, productNotes, productPrice, itemState, distributorID, retailerID, consumerID  );\n  }\n}\n",
  "sourcePath": "A:\\blockchain\\BC_project3\\proba_react\\contracts\\coffeebase\\SupplyChain.sol",
  "compiler": {
    "name": "solc",
    "version": "0.8.6+commit.11564f7e.Emscripten.clang"
  },
  "schemaVersion": "3.4.2",
  "updatedAt": "2021-08-11T18:17:36.368Z",
  "networkType": "ethereum",
  "devdoc": {
    "kind": "dev",
    "methods": {},
    "version": 1
  },
  "userdoc": {
    "kind": "user",
    "methods": {},
    "version": 1
  }
}